{
  "_format": "hh-sol-artifact-1",
  "contractName": "MonBridgeDex",
  "sourceName": "contracts/MonBridgeDex.sol",
  "abi": [
    {
      "inputs": [
        {
          "internalType": "address",
          "name": "_weth",
          "type": "address"
        }
      ],
      "stateMutability": "nonpayable",
      "type": "constructor"
    },
    {
      "anonymous": false,
      "inputs": [
        {
          "indexed": true,
          "internalType": "address",
          "name": "owner",
          "type": "address"
        },
        {
          "indexed": false,
          "internalType": "uint256",
          "name": "ethAmount",
          "type": "uint256"
        }
      ],
      "name": "FeesWithdrawn",
      "type": "event"
    },
    {
      "anonymous": false,
      "inputs": [
        {
          "indexed": true,
          "internalType": "address",
          "name": "token",
          "type": "address"
        }
      ],
      "name": "IntermediateTokenAdded",
      "type": "event"
    },
    {
      "anonymous": false,
      "inputs": [
        {
          "indexed": true,
          "internalType": "address",
          "name": "token",
          "type": "address"
        }
      ],
      "name": "IntermediateTokenRemoved",
      "type": "event"
    },
    {
      "anonymous": false,
      "inputs": [
        {
          "indexed": false,
          "internalType": "address",
          "name": "router",
          "type": "address"
        }
      ],
      "name": "RouterAdded",
      "type": "event"
    },
    {
      "anonymous": false,
      "inputs": [
        {
          "indexed": false,
          "internalType": "address",
          "name": "router",
          "type": "address"
        }
      ],
      "name": "RouterRemoved",
      "type": "event"
    },
    {
      "anonymous": false,
      "inputs": [
        {
          "indexed": false,
          "internalType": "uint256",
          "name": "defaultSlippageBps",
          "type": "uint256"
        },
        {
          "indexed": false,
          "internalType": "uint256",
          "name": "minSlippageBps",
          "type": "uint256"
        },
        {
          "indexed": false,
          "internalType": "uint256",
          "name": "maxSlippageBps",
          "type": "uint256"
        }
      ],
      "name": "SlippageConfigUpdated",
      "type": "event"
    },
    {
      "anonymous": false,
      "inputs": [
        {
          "indexed": true,
          "internalType": "address",
          "name": "token",
          "type": "address"
        }
      ],
      "name": "StablecoinAdded",
      "type": "event"
    },
    {
      "anonymous": false,
      "inputs": [
        {
          "indexed": true,
          "internalType": "address",
          "name": "token",
          "type": "address"
        }
      ],
      "name": "StablecoinRemoved",
      "type": "event"
    },
    {
      "anonymous": false,
      "inputs": [
        {
          "indexed": true,
          "internalType": "address",
          "name": "user",
          "type": "address"
        },
        {
          "indexed": false,
          "internalType": "uint256",
          "name": "amountIn",
          "type": "uint256"
        },
        {
          "indexed": false,
          "internalType": "uint256",
          "name": "amountOut",
          "type": "uint256"
        }
      ],
      "name": "SwapExecuted",
      "type": "event"
    },
    {
      "anonymous": false,
      "inputs": [
        {
          "indexed": true,
          "internalType": "address",
          "name": "owner",
          "type": "address"
        },
        {
          "indexed": false,
          "internalType": "address",
          "name": "token",
          "type": "address"
        },
        {
          "indexed": false,
          "internalType": "uint256",
          "name": "amount",
          "type": "uint256"
        }
      ],
      "name": "TokenFeesWithdrawn",
      "type": "event"
    },
    {
      "anonymous": false,
      "inputs": [
        {
          "indexed": false,
          "internalType": "address",
          "name": "token",
          "type": "address"
        }
      ],
      "name": "TokenRemovedFromWhitelist",
      "type": "event"
    },
    {
      "anonymous": false,
      "inputs": [
        {
          "indexed": false,
          "internalType": "address",
          "name": "token",
          "type": "address"
        }
      ],
      "name": "TokenWhitelisted",
      "type": "event"
    },
    {
      "inputs": [],
      "name": "FEE_DIVISOR",
      "outputs": [
        {
          "internalType": "uint256",
          "name": "",
          "type": "uint256"
        }
      ],
      "stateMutability": "view",
      "type": "function"
    },
    {
      "inputs": [],
      "name": "MAX_HOPS",
      "outputs": [
        {
          "internalType": "uint256",
          "name": "",
          "type": "uint256"
        }
      ],
      "stateMutability": "view",
      "type": "function"
    },
    {
      "inputs": [],
      "name": "MAX_ROUTERS",
      "outputs": [
        {
          "internalType": "uint256",
          "name": "",
          "type": "uint256"
        }
      ],
      "stateMutability": "view",
      "type": "function"
    },
    {
      "inputs": [],
      "name": "MAX_SPLITS_PER_HOP",
      "outputs": [
        {
          "internalType": "uint256",
          "name": "",
          "type": "uint256"
        }
      ],
      "stateMutability": "view",
      "type": "function"
    },
    {
      "inputs": [],
      "name": "SPLIT_THRESHOLD_BPS",
      "outputs": [
        {
          "internalType": "uint256",
          "name": "",
          "type": "uint256"
        }
      ],
      "stateMutability": "view",
      "type": "function"
    },
    {
      "inputs": [],
      "name": "WETH",
      "outputs": [
        {
          "internalType": "address",
          "name": "",
          "type": "address"
        }
      ],
      "stateMutability": "view",
      "type": "function"
    },
    {
      "inputs": [
        {
          "internalType": "address[]",
          "name": "tokens",
          "type": "address[]"
        }
      ],
      "name": "addCommonIntermediates",
      "outputs": [],
      "stateMutability": "nonpayable",
      "type": "function"
    },
    {
      "inputs": [
        {
          "internalType": "address[]",
          "name": "tokens",
          "type": "address[]"
        }
      ],
      "name": "addCommonStablecoins",
      "outputs": [],
      "stateMutability": "nonpayable",
      "type": "function"
    },
    {
      "inputs": [
        {
          "internalType": "address[]",
          "name": "_routers",
          "type": "address[]"
        }
      ],
      "name": "addRouters",
      "outputs": [],
      "stateMutability": "nonpayable",
      "type": "function"
    },
    {
      "inputs": [
        {
          "internalType": "uint256",
          "name": "",
          "type": "uint256"
        }
      ],
      "name": "commonIntermediates",
      "outputs": [
        {
          "internalType": "address",
          "name": "",
          "type": "address"
        }
      ],
      "stateMutability": "view",
      "type": "function"
    },
    {
      "inputs": [
        {
          "internalType": "uint256",
          "name": "",
          "type": "uint256"
        }
      ],
      "name": "commonStablecoins",
      "outputs": [
        {
          "internalType": "address",
          "name": "",
          "type": "address"
        }
      ],
      "stateMutability": "view",
      "type": "function"
    },
    {
      "inputs": [],
      "name": "defaultSlippageBps",
      "outputs": [
        {
          "internalType": "uint256",
          "name": "",
          "type": "uint256"
        }
      ],
      "stateMutability": "view",
      "type": "function"
    },
    {
      "inputs": [
        {
          "internalType": "uint256",
          "name": "amountIn",
          "type": "uint256"
        },
        {
          "internalType": "uint256",
          "name": "amountOutMin",
          "type": "uint256"
        },
        {
          "components": [
            {
              "internalType": "address",
              "name": "inputToken",
              "type": "address"
            },
            {
              "internalType": "address",
              "name": "outputToken",
              "type": "address"
            },
            {
              "internalType": "uint256",
              "name": "hops",
              "type": "uint256"
            },
            {
              "components": [
                {
                  "internalType": "address",
                  "name": "router",
                  "type": "address"
                },
                {
                  "internalType": "uint256",
                  "name": "percentage",
                  "type": "uint256"
                },
                {
                  "internalType": "address[]",
                  "name": "path",
                  "type": "address[]"
                }
              ],
              "internalType": "struct MonBridgeDex.Split[][]",
              "name": "splitRoutes",
              "type": "tuple[][]"
            }
          ],
          "internalType": "struct MonBridgeDex.TradeRoute",
          "name": "route",
          "type": "tuple"
        },
        {
          "internalType": "uint256",
          "name": "deadline",
          "type": "uint256"
        }
      ],
      "name": "executeSwap",
      "outputs": [
        {
          "internalType": "uint256",
          "name": "amountOut",
          "type": "uint256"
        }
      ],
      "stateMutability": "payable",
      "type": "function"
    },
    {
      "inputs": [],
      "name": "feeAccumulatedETH",
      "outputs": [
        {
          "internalType": "uint256",
          "name": "",
          "type": "uint256"
        }
      ],
      "stateMutability": "view",
      "type": "function"
    },
    {
      "inputs": [
        {
          "internalType": "address",
          "name": "",
          "type": "address"
        }
      ],
      "name": "feeAccumulatedTokens",
      "outputs": [
        {
          "internalType": "uint256",
          "name": "",
          "type": "uint256"
        }
      ],
      "stateMutability": "view",
      "type": "function"
    },
    {
      "inputs": [
        {
          "internalType": "uint256",
          "name": "amountIn",
          "type": "uint256"
        },
        {
          "internalType": "address",
          "name": "inputToken",
          "type": "address"
        },
        {
          "internalType": "address",
          "name": "outputToken",
          "type": "address"
        }
      ],
      "name": "findBestRoute",
      "outputs": [
        {
          "components": [
            {
              "internalType": "address",
              "name": "inputToken",
              "type": "address"
            },
            {
              "internalType": "address",
              "name": "outputToken",
              "type": "address"
            },
            {
              "internalType": "uint256",
              "name": "hops",
              "type": "uint256"
            },
            {
              "components": [
                {
                  "internalType": "address",
                  "name": "router",
                  "type": "address"
                },
                {
                  "internalType": "uint256",
                  "name": "percentage",
                  "type": "uint256"
                },
                {
                  "internalType": "address[]",
                  "name": "path",
                  "type": "address[]"
                }
              ],
              "internalType": "struct MonBridgeDex.Split[][]",
              "name": "splitRoutes",
              "type": "tuple[][]"
            }
          ],
          "internalType": "struct MonBridgeDex.TradeRoute",
          "name": "route",
          "type": "tuple"
        },
        {
          "internalType": "uint256",
          "name": "expectedOut",
          "type": "uint256"
        }
      ],
      "stateMutability": "view",
      "type": "function"
    },
    {
      "inputs": [
        {
          "internalType": "uint256",
          "name": "amountIn",
          "type": "uint256"
        },
        {
          "internalType": "address",
          "name": "tokenIn",
          "type": "address"
        },
        {
          "internalType": "address",
          "name": "tokenOut",
          "type": "address"
        }
      ],
      "name": "findBestRouterForPair",
      "outputs": [
        {
          "internalType": "address",
          "name": "bestRouter",
          "type": "address"
        },
        {
          "internalType": "uint256",
          "name": "bestAmountOut",
          "type": "uint256"
        }
      ],
      "stateMutability": "view",
      "type": "function"
    },
    {
      "inputs": [
        {
          "internalType": "uint256",
          "name": "amountIn",
          "type": "uint256"
        },
        {
          "internalType": "address",
          "name": "tokenIn",
          "type": "address"
        },
        {
          "internalType": "address",
          "name": "tokenOut",
          "type": "address"
        },
        {
          "internalType": "address[]",
          "name": "",
          "type": "address[]"
        }
      ],
      "name": "findBestSplitForHop",
      "outputs": [
        {
          "internalType": "uint256",
          "name": "expectedOut",
          "type": "uint256"
        },
        {
          "components": [
            {
              "internalType": "address",
              "name": "router",
              "type": "address"
            },
            {
              "internalType": "uint256",
              "name": "percentage",
              "type": "uint256"
            },
            {
              "internalType": "address[]",
              "name": "path",
              "type": "address[]"
            }
          ],
          "internalType": "struct MonBridgeDex.Split[]",
          "name": "splits",
          "type": "tuple[]"
        }
      ],
      "stateMutability": "view",
      "type": "function"
    },
    {
      "inputs": [
        {
          "internalType": "uint256",
          "name": "amountIn",
          "type": "uint256"
        },
        {
          "internalType": "address",
          "name": "inputToken",
          "type": "address"
        },
        {
          "internalType": "address",
          "name": "outputToken",
          "type": "address"
        },
        {
          "internalType": "address[]",
          "name": "",
          "type": "address[]"
        }
      ],
      "name": "findBestTwoHopRoute",
      "outputs": [
        {
          "internalType": "uint256",
          "name": "expectedOut",
          "type": "uint256"
        },
        {
          "components": [
            {
              "internalType": "address",
              "name": "inputToken",
              "type": "address"
            },
            {
              "internalType": "address",
              "name": "outputToken",
              "type": "address"
            },
            {
              "internalType": "uint256",
              "name": "hops",
              "type": "uint256"
            },
            {
              "components": [
                {
                  "internalType": "address",
                  "name": "router",
                  "type": "address"
                },
                {
                  "internalType": "uint256",
                  "name": "percentage",
                  "type": "uint256"
                },
                {
                  "internalType": "address[]",
                  "name": "path",
                  "type": "address[]"
                }
              ],
              "internalType": "struct MonBridgeDex.Split[][]",
              "name": "splitRoutes",
              "type": "tuple[][]"
            }
          ],
          "internalType": "struct MonBridgeDex.TradeRoute",
          "name": "route",
          "type": "tuple"
        }
      ],
      "stateMutability": "view",
      "type": "function"
    },
    {
      "inputs": [],
      "name": "getCommonStablecoins",
      "outputs": [
        {
          "internalType": "address[]",
          "name": "",
          "type": "address[]"
        }
      ],
      "stateMutability": "view",
      "type": "function"
    },
    {
      "inputs": [],
      "name": "getRouters",
      "outputs": [
        {
          "internalType": "address[]",
          "name": "",
          "type": "address[]"
        }
      ],
      "stateMutability": "view",
      "type": "function"
    },
    {
      "inputs": [
        {
          "internalType": "address",
          "name": "token",
          "type": "address"
        }
      ],
      "name": "isWhitelisted",
      "outputs": [
        {
          "internalType": "bool",
          "name": "",
          "type": "bool"
        }
      ],
      "stateMutability": "view",
      "type": "function"
    },
    {
      "inputs": [],
      "name": "maxSlippageBps",
      "outputs": [
        {
          "internalType": "uint256",
          "name": "",
          "type": "uint256"
        }
      ],
      "stateMutability": "view",
      "type": "function"
    },
    {
      "inputs": [],
      "name": "minSlippageBps",
      "outputs": [
        {
          "internalType": "uint256",
          "name": "",
          "type": "uint256"
        }
      ],
      "stateMutability": "view",
      "type": "function"
    },
    {
      "inputs": [],
      "name": "owner",
      "outputs": [
        {
          "internalType": "address",
          "name": "",
          "type": "address"
        }
      ],
      "stateMutability": "view",
      "type": "function"
    },
    {
      "inputs": [
        {
          "internalType": "address",
          "name": "token",
          "type": "address"
        }
      ],
      "name": "removeCommonIntermediate",
      "outputs": [],
      "stateMutability": "nonpayable",
      "type": "function"
    },
    {
      "inputs": [
        {
          "internalType": "address",
          "name": "token",
          "type": "address"
        }
      ],
      "name": "removeCommonStablecoin",
      "outputs": [],
      "stateMutability": "nonpayable",
      "type": "function"
    },
    {
      "inputs": [
        {
          "internalType": "address",
          "name": "_router",
          "type": "address"
        }
      ],
      "name": "removeRouter",
      "outputs": [],
      "stateMutability": "nonpayable",
      "type": "function"
    },
    {
      "inputs": [
        {
          "internalType": "address",
          "name": "token",
          "type": "address"
        }
      ],
      "name": "removeTokenFromWhitelist",
      "outputs": [],
      "stateMutability": "nonpayable",
      "type": "function"
    },
    {
      "inputs": [
        {
          "internalType": "uint256",
          "name": "",
          "type": "uint256"
        }
      ],
      "name": "routers",
      "outputs": [
        {
          "internalType": "address",
          "name": "",
          "type": "address"
        }
      ],
      "stateMutability": "view",
      "type": "function"
    },
    {
      "inputs": [
        {
          "internalType": "uint256",
          "name": "_defaultSlippageBps",
          "type": "uint256"
        },
        {
          "internalType": "uint256",
          "name": "_minSlippageBps",
          "type": "uint256"
        },
        {
          "internalType": "uint256",
          "name": "_maxSlippageBps",
          "type": "uint256"
        }
      ],
      "name": "updateSlippageConfig",
      "outputs": [],
      "stateMutability": "nonpayable",
      "type": "function"
    },
    {
      "inputs": [
        {
          "internalType": "address[]",
          "name": "tokens",
          "type": "address[]"
        }
      ],
      "name": "whitelistTokens",
      "outputs": [],
      "stateMutability": "nonpayable",
      "type": "function"
    },
    {
      "inputs": [
        {
          "internalType": "address",
          "name": "",
          "type": "address"
        }
      ],
      "name": "whitelistedTokens",
      "outputs": [
        {
          "internalType": "bool",
          "name": "",
          "type": "bool"
        }
      ],
      "stateMutability": "view",
      "type": "function"
    },
    {
      "inputs": [],
      "name": "withdrawFeesETH",
      "outputs": [],
      "stateMutability": "nonpayable",
      "type": "function"
    },
    {
      "inputs": [
        {
          "internalType": "address",
          "name": "token",
          "type": "address"
        }
      ],
      "name": "withdrawFeesToken",
      "outputs": [],
      "stateMutability": "nonpayable",
      "type": "function"
    },
    {
      "stateMutability": "payable",
      "type": "receive"
    }
  ],
  "bytecode": "0x6080346200017957601f6200f31e38819003918201601f19168301916001600160401b038311848410176200017e578084926020946040528339810103126200017957516001600160a01b0381169081900362000179576032600255600a6003556101f4600455600080546001600160a01b0319908116331782556007805490911683179055908152600860205260408120805460ff191660019081179091559080620000ab62000194565b52600a5481600a558062000131575b50600a815280620000ca62000194565b52600b5481600b5580620000ed575b600b825260405161f1699081620001b58239f35b600b82527f0175b7a638427703f0dbe7bb9bbf987a2551717b34e79f33b5b1008d1fa01db9908101905b818110620001265750620000d9565b828155830162000117565b600a82527fc65a7bb8d6351c1cf70c95a316cc6a92839c986682d98bc35f958f4883f9d2a89081019083905b8281106200016d575050620000ba565b8381550183906200015d565b600080fd5b634e487b7160e01b600052604160045260246000fd5b60405190602082016001600160401b038111838210176200017e5760405256fe610ac0604052600436101561001c575b361561001a57600080fd5b005b60006103005260003560e01c8063064d5b48146143305780630a90f27b146142ef578063121d07fe146142b357806321249cf514614138578063298cb735146140cf5780632ab6f68314613f6a578063306275be14613ea35780633456c2031461261f5780633af32abf1461052c57806343725051146125c35780634b01f85e146123f95780634cb1e9e3146123005780634e9c1118146122a45780635b1c1e7c1461218657806364735664146121355780636ae0b15414611ff15780636fcdfbb214611edd5780637bb4f4da14611ee25780638c51222e14611edd5780638da5cb5b14611e895780638e10e23614611cce5780639666762114611c8f5780639b18aa3814611c525780639e93ad8e14611c145780639f9baaaa14611b06578063ad5c464814611ab1578063b769625a14611a74578063ba4200d114610618578063c167c43e146105d9578063c4aa73951461059a578063daf9c2101461052c578063db3ff8bb14610325578063e949115e146102b9578063eaf447091461027a5763f88c31ce0361000f57346102735761030051807ffffffffffffffffffffffffffffffffffffffffffffffffffffffffffffffffc3601126102705760405180600182815491828452602080940190806000527fb10e2d527612073b26eecdfd717e6a320cf44b4afac2b0732d9fcbe2b7fa0cf69060005b8686821061024457859061022c82870383614945565b610240604051928284938452830190614805565b0390f35b835473ffffffffffffffffffffffffffffffffffffffff16855288955090930192918101918101610216565b80fd5b6103005180fd5b346102735761030051807ffffffffffffffffffffffffffffffffffffffffffffffffffffffffffffffffc360112610270576020600354604051908152f35b346102735760207ffffffffffffffffffffffffffffffffffffffffffffffffffffffffffffffffc36011261027357600435600a548110156102735773ffffffffffffffffffffffffffffffffffffffff610315602092614797565b9190546040519260031b1c168152f35b34610273576020807ffffffffffffffffffffffffffffffffffffffffffffffffffffffffffffffffc3601126102735761035d6144dd565b73ffffffffffffffffffffffffffffffffffffffff610383816103005154163314614a85565b808216908161030051526006845260406103005120549182156104ce57938083866104179697610300515260068352846103005180604081205554166040518098819482937fa9059cbb000000000000000000000000000000000000000000000000000000008452600484016020909392919373ffffffffffffffffffffffffffffffffffffffff60408201951681520152565b039161030051905af180156104c0577f6241d2d4228642a412963629be2a38b8fea3c68fc02692659f2afb536393e3af9461045d926103005192610493575b505061ac3e565b61030051546040805173ffffffffffffffffffffffffffffffffffffffff96909616865260208601939093521692a26103005180f35b6104b29250803d106104b9575b6104aa8183614945565b81019061ac26565b8680610456565b503d6104a0565b6040513d61030051823e3d90fd5b606485604051907f08c379a00000000000000000000000000000000000000000000000000000000082526004820152600d60248201527f4e6f20746f6b656e2066656573000000000000000000000000000000000000006044820152fd5b346102735760207ffffffffffffffffffffffffffffffffffffffffffffffffffffffffffffffffc3601126102735773ffffffffffffffffffffffffffffffffffffffff6105786144dd565b1661030051526008602052602060ff6040610300512054166040519015158152f35b346102735761030051807ffffffffffffffffffffffffffffffffffffffffffffffffffffffffffffffffc360112610270576020600454604051908152f35b346102735761030051807ffffffffffffffffffffffffffffffffffffffffffffffffffffffffffffffffc360112610270576020600554604051908152f35b346102735761062636614a04565b5061040052610380526103605261063b614c7b565b5073ffffffffffffffffffffffffffffffffffffffff6103805116151580611a52575b61066790614d07565b610675610360511515614ca2565b61067d614c7b565b806102805273ffffffffffffffffffffffffffffffffffffffff6103805116905273ffffffffffffffffffffffffffffffffffffffff61040051166020610280510152600260406102805101526040516106d68161489d565b600281526106e660208201614f62565b6060610280510152610300516101a05260606102c05260606104205261070a61a411565b6103005190815b81518110156107635773ffffffffffffffffffffffffffffffffffffffff6107398284615028565b511661074e575b61074990614b26565b610711565b9161075b61074991614b26565b929050610740565b506002820182116112f25761077a60028301614d6c565b6103005191825b8151811080611a49575b156107fd578073ffffffffffffffffffffffffffffffffffffffff6107b36107be9385615028565b51166107c357614b26565b610781565b73ffffffffffffffffffffffffffffffffffffffff6107e28285615028565b51166107f76107f087614b26565b9686615028565b52614b26565b848373ffffffffffffffffffffffffffffffffffffffff61038051166108238383615028565b526001820182116112f25761086791610859600173ffffffffffffffffffffffffffffffffffffffff6104005116920183615028565b52610400516103805161aca3565b60e05261030051610200526001546102a0525b60e0518051906102005191821015611a425773ffffffffffffffffffffffffffffffffffffffff916108ab91615028565b511680610240528015611a3c576103005152600860205260ff6040610300512054161580611a16575b806119f0575b6119eb576040516108ea816148f1565b61030051905261090461024051610380516103605161b441565b90801580156119e2575b6119db5761093790604051610922816148f1565b6103005190526104005190610240519061b441565b91906101a0518111806119d1575b6119bd575b5050506102005160038110806119b1575b61172c575b506103005180610320526101e0525b6102a0516101e051908110156117155761099d73ffffffffffffffffffffffffffffffffffffffff916147ce565b90549060031b1c16806103c052156116f55760026109c1610240516103805161a62d565b806102605251106116f5576040517fd06ca61f00000000000000000000000000000000000000000000000000000000815261036051600482015260406024820152610300518180610a186044820161026051614805565b03816103c0515afa6103005191816116fa575b50610a4757505b610a3e6101e051614b26565b6101e05261096f565b805190817fffffffffffffffffffffffffffffffffffffffffffffffffffffffffffffffff8101116112f2577fffffffffffffffffffffffffffffffffffffffffffffffffffffffffffffffff610a9f920190615028565b516103205261032051156116f5576080604051610abb8161490d565b600481526020369101376080604051610ad38161490d565b6004815260203691013773ffffffffffffffffffffffffffffffffffffffff610b14610b0961040051610240516103205161bc65565b508061012052614fb9565b5116156116f557610b336101205161040051610240516103205161c0c0565b60c052801515806116e9575b6114fb575b5061030051610140525b6102a05161014051908110156114f557610b7c73ffffffffffffffffffffffffffffffffffffffff916147ce565b90549060031b1c168061022052156114a5576002610ba0610400516102405161a62d565b806103e05251106114a5576103005180610160526103205160068102046006036114c557506040517fd06ca61f000000000000000000000000000000000000000000000000000000008152600a6006610320510204600482015260406024820152610300518180610c17604482016103e051614805565b0381610220515afa6103005191816114aa575b50610c4657505b610c3d61014051614b26565b61014052610b4e565b80517fffffffffffffffffffffffffffffffffffffffffffffffffffffffffffffffff81019081116112f257610c7b91615028565b516101605261016051156114a55761030051610100525b6102a051610100519081101561149f57610cc073ffffffffffffffffffffffffffffffffffffffff916147ce565b90549060031b1c16806101c0521561149a576002610ce4610380516102405161a62d565b8061018052511061149a57610320518060021b046004036112f25761030051506040517fd06ca61f000000000000000000000000000000000000000000000000000000008152600a6103205160021b04600482015260406024820152610300518180610d566044820161018051614805565b03816101c0515afa61030051918161147f575b50610d8557505b610d7c61010051614b26565b61010052610c92565b805190817fffffffffffffffffffffffffffffffffffffffffffffffffffffffffffffffff8101116112f2577fffffffffffffffffffffffffffffffffffffffffffffffffffffffffffffffff610ddd920190615028565b518015611479576002610df6610400516103805161a62d565b806102e0525110611479576103005150604051907fd06ca61f000000000000000000000000000000000000000000000000000000008252600482015260406024820152610300518180610e4f604482016102e051614805565b03816101c0515afa61030051918161145e575b50610e6d5750610d70565b8051807fffffffffffffffffffffffffffffffffffffffffffffffffffffffffffffffff8101116112f257610ed2917fffffffffffffffffffffffffffffffffffffffffffffffffffffffffffffffff610ec8920190615028565b5161016051614aea565b6101a0518111611385575b50610eed6040518060a052614929565b600560a0515260a036602082510137611f40610f0a60a051614fb9565b52611b58610f1960a051614fc6565b52611388610f2860a051614fd6565b52610bb8610f3760a051614fe6565b526107d0610f4660a051614ff6565b52610300515b60a051805182101561137e5781610f6291615028565b5190612710828103116112f257612710610f7f836103205161a3fe565b046103005150604051907fd06ca61f000000000000000000000000000000000000000000000000000000008252600482015260406024820152610300518180610fce604482016103e051614805565b0381610220515afa610300519181611363575b50610ff65750610ff19150614b26565b610f4c565b805190817fffffffffffffffffffffffffffffffffffffffffffffffffffffffffffffffff8101116112f2577fffffffffffffffffffffffffffffffffffffffffffffffffffffffffffffffff61104e920190615028565b51916127106110628282036103205161a3fe565b046103005150604051907fd06ca61f0000000000000000000000000000000000000000000000000000000082526004820152604060248201526103005181806110b16044820161018051614805565b03816101c0515afa610300519181611348575b506110d5575050610ff19150614b26565b805190817fffffffffffffffffffffffffffffffffffffffffffffffffffffffffffffffff8101116112f2577fffffffffffffffffffffffffffffffffffffffffffffffffffffffffffffffff61112d920190615028565b516103005150604051907fd06ca61f00000000000000000000000000000000000000000000000000000000825260048201526040602482015261030051818061117c604482016102e051614805565b03816101c0515afa610300519181611325575b506111a0575050610ff19150614b26565b805193847fffffffffffffffffffffffffffffffffffffffffffffffffffffffffffffffff8101116112f2576111ff611206927fffffffffffffffffffffffffffffffffffffffffffffffffffffffffffffffff610ff1970190615028565b5190614aea565b6101a0518111611218575b5050614b26565b6101a052611224615092565b6102c0526040516112348161489d565b6103c051815261271060208201526102605160408201526112576102c051614fb9565b526112646102c051614fb9565b5061126d6150e7565b6104205260405161127d8161489d565b6102205181528160208201526103e051604082015261129e61042051614fb9565b526112ab61042051614fb9565b50604051906112b98261489d565b6101c05182526127100360208201526101805160408201526112dd61042051614fc6565b526112ea61042051614fc6565b508280611211565b7f4e487b710000000000000000000000000000000000000000000000000000000061030051526011600452602461030051fd5b61134191923d8091833e6113398183614945565b8101906185e0565b908561118f565b61135c91923d8091833e6113398183614945565b90856110c4565b61137791923d8091833e6113398183614945565b9084610fe1565b5050610d70565b6101a052611391615092565b6102c0526040516113a18161489d565b6103c051815261271060208201526102605160408201526113c46102c051614fb9565b526113d16102c051614fb9565b506113da6150e7565b610420526040516113ea8161489d565b61022051815261177060208201526103e051604082015261140d61042051614fb9565b5261141a61042051614fb9565b506040516114278161489d565b6101c0518152610fa0602082015261018051604082015261144a61042051614fc6565b5261145761042051614fc6565b5080610edd565b61147291923d8091833e6113398183614945565b9082610e62565b50610d70565b61149391923d8091833e6113398183614945565b9082610d69565b610d70565b50610c31565b610c31565b6114be91923d8091833e6113398183614945565b9082610c2a565b7f4e487b710000000000000000000000000000000000000000000000000000000090526011600452602461030051fd5b50610a32565b6101a052611507615092565b6102c0526040516115178161489d565b6103c0518152612710602082015261026051604082015261153a6102c051614fb9565b526115476102c051614fb9565b50610300516103a0908082525b6101205180518210156115c2579073ffffffffffffffffffffffffffffffffffffffff6115848261159794615028565b51161515806115ad575b61159c57614b26565b611554565b6115a68351614b26565b8352614b26565b506115ba8160c051615028565b51151561158e565b50506115ce9051615134565b610420526103005180608052610340525b6101205180519061034051918210156116e15773ffffffffffffffffffffffffffffffffffffffff9161161191615028565b51161515806116c9575b611635575b61162c61034051614b26565b610340526115df565b73ffffffffffffffffffffffffffffffffffffffff61165a6103405161012051615028565b511661166b6103405160c051615028565b5161167c610400516102405161a62d565b906040519261168a8461489d565b8352602083015260408201526116a560805161042051615028565b526116b560805161042051615028565b506116c1608051614b26565b608052611620565b506116d96103405160c051615028565b51151561161b565b505080610b44565b506101a0518111610b3f565b610a32565b61170e91923d8091833e6113398183614945565b9082610a2b565b505b61172361020051614b26565b6102005261087a565b610300519060018101106114c557600161020051015b60e05151811080611994575b1561198e5773ffffffffffffffffffffffffffffffffffffffff6117748260e051615028565b5116801561193e57806103005152600860205260ff604061030051205416158061196b575b80611948575b61193e576040516117af816148f1565b6103005190526117c681610380516103605161b441565b5090811561193357906117ef916040516117df816148f1565b610300519052610400519161b441565b506101a0516069908181029181830414901517156112f257606490041061181e5761181990614b26565b611742565b505060015b1561182e5780610960565b6101a051151580611926575b80611919575b156118a85761186360606102805101516102c05161185d82614fb9565b52614fb9565b5061188260606102805101516104205161187c82614fc6565b52614fc6565b50610280516101a0515b6102406040519283928352604060208401526040830190614581565b6040516118b4816148f1565b610300518152604051906118c7826148b9565b73ffffffffffffffffffffffffffffffffffffffff6103805116825273ffffffffffffffffffffffffffffffffffffffff6104005116602083015261030051604083015260608201526103005161188c565b5061042051511515611840565b506102c05151151561183a565b505061181990614b26565b5061181990614b26565b5073ffffffffffffffffffffffffffffffffffffffff610400511681141561179f565b5073ffffffffffffffffffffffffffffffffffffffff6103805116811415611799565b50611823565b506102005160028101106112f2576002610200510181111561174e565b506101a051151561095b565b6101a0526102c0526104205280808061094a565b5082511515610945565b5050611717565b5081511561090e565b611717565b5073ffffffffffffffffffffffffffffffffffffffff61040051166102405114156108da565b5073ffffffffffffffffffffffffffffffffffffffff61038051166102405114156108d4565b50611717565b505061182e565b5084841061078b565b506104005173ffffffffffffffffffffffffffffffffffffffff16151561065e565b346102735761030051807ffffffffffffffffffffffffffffffffffffffffffffffffffffffffffffffffc360112610270576020604051600a8152f35b346102735761030051807ffffffffffffffffffffffffffffffffffffffffffffffffffffffffffffffffc36011261027057602073ffffffffffffffffffffffffffffffffffffffff60075416604051908152f35b346102735761030051807ffffffffffffffffffffffffffffffffffffffffffffffffffffffffffffffffc3601126102705773ffffffffffffffffffffffffffffffffffffffff8091541690611b5d823314614a85565b600554918215611bb65782906103005180809381938260055582f1156104c05760207fc0819c13be868895eb93e40eaceb96de976442fa1d404e5c55f14bb65a8c489a9161030051541692604051908152a26103005180f35b60646040517f08c379a000000000000000000000000000000000000000000000000000000000815260206004820152600b60248201527f4e6f2045544820666565730000000000000000000000000000000000000000006044820152fd5b346102735761030051807ffffffffffffffffffffffffffffffffffffffffffffffffffffffffffffffffc3601126102705760206040516103e88152f35b346102735761030051807ffffffffffffffffffffffffffffffffffffffffffffffffffffffffffffffffc36011261027057602060405160328152f35b346102735761030051807ffffffffffffffffffffffffffffffffffffffffffffffffffffffffffffffffc360112610270576020600254604051908152f35b346102735760207ffffffffffffffffffffffffffffffffffffffffffffffffffffffffffffffffc36011261027357611d056144dd565b73ffffffffffffffffffffffffffffffffffffffff90611d2c826103005154163314614a85565b81610300519116915b600a91825480821015611e7f57829085611d4e84614797565b939054600394851b1c1614611d70575050611d6a919250614b26565b90611d35565b7fffffffffffffffffffffffffffffffffffffffffffffffffffffffffffffffff929192938482019182116112f257611de893611daf611dbb93614797565b9054911b1c1691614797565b90919082549060031b9173ffffffffffffffffffffffffffffffffffffffff809116831b921b1916179055565b81548015611e50570190611e20611dfe83614797565b73ffffffffffffffffffffffffffffffffffffffff82549160031b1b19169055565b557f1eddf7748217879614fa48352f0c1f0b08fef18b6aa35357ce5a0a2fb23c4d386103005180a25b6103005180f35b7f4e487b7100000000000000000000000000000000000000000000000000000000600052603160045260246000fd5b5050505050611e49565b346102735761030051807ffffffffffffffffffffffffffffffffffffffffffffffffffffffffffffffffc3601126102705773ffffffffffffffffffffffffffffffffffffffff6020915416604051908152f35b61484f565b3461027357611efa611ef336614a04565b509161b441565b906040519182916040830190835260209060408285015282518091526060918285019281818460051b88010195019361030051915b848310611f3c5787870388f35b919395909294967fffffffffffffffffffffffffffffffffffffffffffffffffffffffffffffffa090820301835284875183830190826080604073ffffffffffffffffffffffffffffffffffffffff93848151168852838101518489015201519587604082015286518095520194019161030051915b818310611fd5575050505080600192980193019301909287969593949294611f2f565b8351811686529484019489949390930192600190920191611fb2565b34610273576020807ffffffffffffffffffffffffffffffffffffffffffffffffffffffffffffffffc360112610273576120296144dd565b73ffffffffffffffffffffffffffffffffffffffff91612050836103005154163314614a85565b82610300519216905b6001928354938482101561212a578584612072846147ce565b929054600393841b1c161461209657505061208f91929350614b26565b9190612059565b919092947fffffffffffffffffffffffffffffffffffffffffffffffffffffffffffffffff968782019182116112f2576120e2936120d6611dbb936147ce565b9054911b1c16916147ce565b8054938415611e50577fbd6d178d515bf811c86f393b42367076da766033c8ebd94ea5a7e3eaf69d1c4694019061211b611dfe836147ce565b55604051908152a16103005180f35b505050505050611e49565b346102735761030051807ffffffffffffffffffffffffffffffffffffffffffffffffffffffffffffffffc36011261027057610240612172614bf6565b604051918291602083526020830190614805565b346102735760607ffffffffffffffffffffffffffffffffffffffffffffffffffffffffffffffffc36011261027357600435602435604435916121e473ffffffffffffffffffffffffffffffffffffffff6103005154163314614a85565b808211158061229a575b1561223c577fa6ef9c2c8c05c3f62b0a1014bcbb701e2b13b5d9893827d9ef600974444d83a99260609282600255806003558160045560405192835260208301526040820152a16103005180f35b60646040517f08c379a000000000000000000000000000000000000000000000000000000000815260206004820152601760248201527f496e76616c696420736c69707061676520636f6e6669670000000000000000006044820152fd5b50828111156121ee565b346102735760207ffffffffffffffffffffffffffffffffffffffffffffffffffffffffffffffffc360112610273576004356001548110156102735773ffffffffffffffffffffffffffffffffffffffff6103156020926147ce565b346102735761230e36614472565b9073ffffffffffffffffffffffffffffffffffffffff91612336836103005154163314614a85565b610300515b818110612349576103005180f35b8061236c8561236461235f6123f4958789614b53565b614b63565b161515614b91565b8461237b61235f838688614b53565b1661030051527f6a65f90b1a644d2faac467a21e07e50e3f8fa5846e26231d30ae79a417d3d2626020600881526040610300512060017fffffffffffffffffffffffffffffffffffffffffffffffffffffffffffffff008254161790556123e661235f848789614b53565b8760405191168152a1614b26565b61233b565b346102735761240736614472565b73ffffffffffffffffffffffffffffffffffffffff9061242e826103005154163314614a85565b600192600a61243e838654614aea565b1161256557610300515b828110612456576103005180f35b8361246561235f838686614b53565b16156125075761247961235f828585614b53565b908554680100000000000000008110156124d8576124d392611dbb82896124a294018a556147ce565b7f81639ab8f3fbb025b1e08849071d6ba211e0153cc8c447680595775116b67a1a60206123e661235f848888614b53565b612448565b7f4e487b7100000000000000000000000000000000000000000000000000000000600052604160045260246000fd5b60646040517f08c379a000000000000000000000000000000000000000000000000000000000815260206004820152601d60248201527f526f757465722063616e6e6f74206265207a65726f20616464726573730000006044820152fd5b60646040517f08c379a000000000000000000000000000000000000000000000000000000000815260206004820152601060248201527f546f6f206d616e7920726f7574657273000000000000000000000000000000006044820152fd5b346102735760207ffffffffffffffffffffffffffffffffffffffffffffffffffffffffffffffffc36011261027357600435600b548110156102735773ffffffffffffffffffffffffffffffffffffffff610315602092614731565b7ffffffffffffffffffffffffffffffffffffffffffffffffffffffffffffffffc6080813601126102735767ffffffffffffffff6044351161027357608090604435360301126102735760095460ff8116613e45577fffffffffffffffffffffffffffffffffffffffffffffffffffffffffffffff001660011760095560448035013515158080613e35575b15613dd7576126c460646044350160443560040161ed38565b905060448035013503613d79576126de6004351515614ca2565b73ffffffffffffffffffffffffffffffffffffffff612701604435600401614b63565b16151580613d4d575b15613cef574260643510613c9157610300515b60448035013581106139a5575034156138fb5773ffffffffffffffffffffffffffffffffffffffff612753604435600401614b63565b816007541691829116036138775760043534036137f357803b1561027357604051907fd0e30db00000000000000000000000000000000000000000000000000000000082528160048161030051938235905af180156104c0576137e4575b505b6103e860043504906127c782600435614b84565b91341561379d576127da90600554614aea565b6005555b6127ec604435600401614b63565b610300516044803501357fffffffffffffffffffffffffffffffffffffffffffffffffffffffffffffffff810111915b6044803501358210612cb257505060243580612c48575b506024604435019061284482614b63565b9160079273ffffffffffffffffffffffffffffffffffffffff80855416911614600014612b445750610300519280612b26575b6129b2575b50901561290e5750610300518082818115612905575b829182913390f1156104c0576020905b604051600435815281838201527f2d043ce009ff53fd444b0f4f5ff4c3f4ee293265203f77f156eeb33b595dfc4f60403392a27fffffffffffffffffffffffffffffffffffffffffffffffffffffffffffffff0060095416600955604051908152f35b506108fc612892565b5473ffffffffffffffffffffffffffffffffffffffff16803b1561027357604051907f2e1a7d4d000000000000000000000000000000000000000000000000000000008252826004830152816024816103005180945af180156104c05761299c575b50610300518082818115612993575b829182913390f1156104c0576020906128a2565b506108fc61297f565b6129a590614889565b6103005180156129705780fd5b6129c660646044350160443560040161ed38565b9091612af657612a0991612a02917fffffffffffffffffffffffffffffffffffffffffffffffffffffffffffffffff604480350135019161ed8c565b369161ee89565b80511561287c57610300515b8151811015612aee57612a288183615028565b5173ffffffffffffffffffffffffffffffffffffffff815116151580612ae0575b612a5d575b50612a5890614b26565b612a15565b604001518051907fffffffffffffffffffffffffffffffffffffffffffffffffffffffffffffffff82019182116112f25773ffffffffffffffffffffffffffffffffffffffff91612aad91615028565b511673ffffffffffffffffffffffffffffffffffffffff84541614612ad25785612a4e565b5050905060015b908361287c565b506040810151511515612a49565b505090612ad9565b7f4e487b710000000000000000000000000000000000000000000000000000000084526011600452602461030051fd5b50612b3b60646044350160443560040161ed38565b90501515612877565b905073ffffffffffffffffffffffffffffffffffffffff9250612b679150614b63565b6040517fa9059cbb0000000000000000000000000000000000000000000000000000000081523360048201526024810184905261030051909260209284926044928492165af19081156104c0576103005191612c2a575b5015612bcc576020906128a2565b60646040517f08c379a000000000000000000000000000000000000000000000000000000000815260206004820152601660248201527f4f7574707574207472616e73666572206661696c6564000000000000000000006044820152fd5b612c42915060203d81116104b9576104aa8183614945565b82612bbe565b8310612c545783612833565b60646040517f08c379a000000000000000000000000000000000000000000000000000000000815260206004820152601a60248201527f496e73756666696369656e74206f757470757420616d6f756e740000000000006044820152fd5b909291612cd6612a0285612cd060646044350160443560040161ed38565b9061ed8c565b9182518015159081613791575b501561373357816112f2577fffffffffffffffffffffffffffffffffffffffffffffffffffffffffffffffff604480350135018510613509575b61030051946040612d2d85614fb9565b5101516040612d3b86614fb9565b51015151807fffffffffffffffffffffffffffffffffffffffffffffffffffffffffffffffff8101116112f25773ffffffffffffffffffffffffffffffffffffffff917fffffffffffffffffffffffffffffffffffffffffffffffffffffffffffffffff612daa920190615028565b511694610300515b855181101561348d57612dc58187615028565b5173ffffffffffffffffffffffffffffffffffffffff815116158015613481575b6134775785612710612dfc60208401518d61a3fe565b0491821561346b57610300519161343b577fffffffffffffffffffffffffffffffffffffffffffffffffffffffffffffffff6044803501350186146132ba575b8515806132b1575b15612ff75773ffffffffffffffffffffffffffffffffffffffff60075416803b1561027357604051907f2e1a7d4d000000000000000000000000000000000000000000000000000000008252846004830152816024816103005180945af180156104c057612fe1575b509081604073ffffffffffffffffffffffffffffffffffffffff612f13959451169101519160405194859384927f7ff36ab50000000000000000000000000000000000000000000000000000000084526004840152608060248401526084830190614805565b93306044830152606435606483015281610300519503925af1610300519181612fc6575b50612f4b5750612f4690614b26565b612db2565b80519081612f5f575b5050612f4690614b26565b909198827fffffffffffffffffffffffffffffffffffffffffffffffffffffffffffffffff8101116112f2576111ff612fbe927fffffffffffffffffffffffffffffffffffffffffffffffffffffffffffffffff612f46950190615028565b97908a612f54565b612fda91923d8091833e6113398183614945565b908b612f37565b612fea90614889565b610300518015612ead5780fd5b92919073ffffffffffffffffffffffffffffffffffffffff600754168a148061327d575b156131705783516040517f095ea7b300000000000000000000000000000000000000000000000000000000815273ffffffffffffffffffffffffffffffffffffffff909116600482015260248101839052602081806044810103816103005173ffffffffffffffffffffffffffffffffffffffff8d165af19081613151575b506130ab575050612f469150614b26565b61310e9293604073ffffffffffffffffffffffffffffffffffffffff825116910151926040518095819482937f18cbafe500000000000000000000000000000000000000000000000000000000845261030051976064359230926004870161eef9565b039161030051905af1610300519181613136575b506131315750612f4690614b26565b612f4b565b61314a91923d8091833e6113398183614945565b908b613122565b6131699060203d6020116104b9576104aa8183614945565b508d61309a565b83516040517f095ea7b300000000000000000000000000000000000000000000000000000000815273ffffffffffffffffffffffffffffffffffffffff909116600482015260248101839052602081806044810103816103005173ffffffffffffffffffffffffffffffffffffffff8d165af1908161325e575b506131fb575050612f469150614b26565b61310e9293604073ffffffffffffffffffffffffffffffffffffffff825116910151926040518095819482937f38ed173900000000000000000000000000000000000000000000000000000000845261030051976064359230926004870161eef9565b6132769060203d6020116104b9576104aa8183614945565b508d6131ea565b50600097506044803501357fffffffffffffffffffffffffffffffffffffffffffffffffffffffffffffffff01861461301b565b50341515612e44565b905060018851146000146132d15760243590612e3c565b60243580613429575073ffffffffffffffffffffffffffffffffffffffff815116604082015160405180927fd06ca61f00000000000000000000000000000000000000000000000000000000825285600483015260406024830152818061334061030051956044830190614805565b03915afa61030051918161340e575b5061335f57508160011c90612e3c565b805190817fffffffffffffffffffffffffffffffffffffffffffffffffffffffffffffffff8101116112f2577fffffffffffffffffffffffffffffffffffffffffffffffffffffffffffffffff6133b7920190615028565b516133c3818b8961ef3e565b60035490818110156133f357505b612710818103116112f257612710916133ec9183039061a3fe565b0490612e3c565b9050600454808211613406575b506133d1565b90508d613400565b61342291923d8091833e6113398183614945565b908d61334f565b6133ec6127109160208401519061a3fe565b7f4e487b710000000000000000000000000000000000000000000000000000000082526011600452602461030051fd5b505050612f4690614b26565b50612f4690614b26565b50602081015115612de6565b50959650925050919084156134ab576134a590614b26565b9061281c565b60646040517f08c379a000000000000000000000000000000000000000000000000000000000815260206004820152601460248201527f5a65726f206f75747075742066726f6d20686f700000000000000000000000006044820152fd5b9094919293604061351985614fb9565b510151604061352786614fb9565b51015151807fffffffffffffffffffffffffffffffffffffffffffffffffffffffffffffffff8101116112f25773ffffffffffffffffffffffffffffffffffffffff917fffffffffffffffffffffffffffffffffffffffffffffffffffffffffffffffff613596920190615028565b51169460015b85518110156136a45760406135b18288615028565b51015160406135c08389615028565b5101515190817fffffffffffffffffffffffffffffffffffffffffffffffffffffffffffffffff8101116112f25761363173ffffffffffffffffffffffffffffffffffffffff917fffffffffffffffffffffffffffffffffffffffffffffffffffffffffffffffff8b940190615028565b5116036136465761364190614b26565b61359c565b60646040517f08c379a000000000000000000000000000000000000000000000000000000000815260206004820152601c60248201527f496e636f6e73697374656e7420706174687320696e2073706c697473000000006044820152fd5b5093929591909473ffffffffffffffffffffffffffffffffffffffff6136ce602460443501614b63565b1681141580613706575b6136e3575b50612d1d565b6103005152600860205261370060ff60406103005120541661edfe565b866136dd565b5073ffffffffffffffffffffffffffffffffffffffff61372a604435600401614b63565b168114156136d8565b60646040517f08c379a000000000000000000000000000000000000000000000000000000000815260206004820152601360248201527f496e76616c69642073706c697420636f756e74000000000000000000000000006044820152fd5b60049150111587612ce3565b73ffffffffffffffffffffffffffffffffffffffff6137c0604435600401614b63565b16610300515260066020526137dd60406103005120918254614aea565b90556127de565b6137ed90614889565b816127b1565b60846040517f08c379a000000000000000000000000000000000000000000000000000000000815260206004820152602160248201527f45544820616d6f756e7420646f65736e2774206d6174636820616d6f756e744960448201527f6e000000000000000000000000000000000000000000000000000000000000006064820152fd5b60846040517f08c379a000000000000000000000000000000000000000000000000000000000815260206004820152602660248201527f496e70757420746f6b656e206d757374206265205745544820666f722045544860448201527f20696e70757400000000000000000000000000000000000000000000000000006064820152fd5b6064602073ffffffffffffffffffffffffffffffffffffffff613922604435600401614b63565b16604051928380927f23b872dd000000000000000000000000000000000000000000000000000000008252336004830152306024830152600435604483015261030051905af180156104c057613982916103005191613987575b5061ac3e565b6127b3565b61399f915060203d81116104b9576104aa8183614945565b8361397c565b61030051905b6139c381612cd060646044350160443560040161ed38565b9050821015613c82576139e481612cd060646044350160443560040161ed38565b831015613c4f578260051b810135907fffffffffffffffffffffffffffffffffffffffffffffffffffffffffffffffa18136030182121561027357613a2b9136910161eda7565b9273ffffffffffffffffffffffffffffffffffffffff84511615613bf157600260408501515110613b9357610300515b60408501518051821015613b7e57613a888273ffffffffffffffffffffffffffffffffffffffff92615028565b5116908115613b2057613acd9173ffffffffffffffffffffffffffffffffffffffff613ab8604435600401614b63565b1681148015613af4575b15613ad25750614b26565b613a5b565b61030051526008602052613aef60ff60406103005120541661edfe565b614b26565b5073ffffffffffffffffffffffffffffffffffffffff613b18602460443501614b63565b168114613ac2565b60646040517f08c379a000000000000000000000000000000000000000000000000000000000815260206004820152601560248201527f496e76616c696420746f6b656e20696e207061746800000000000000000000006044820152fd5b505091613b8c919350614b26565b90916139ab565b60646040517f08c379a000000000000000000000000000000000000000000000000000000000815260206004820152601360248201527f496e76616c69642070617468206c656e677468000000000000000000000000006044820152fd5b60646040517f08c379a000000000000000000000000000000000000000000000000000000000815260206004820152600e60248201527f496e76616c696420726f757465720000000000000000000000000000000000006044820152fd5b7f4e487b710000000000000000000000000000000000000000000000000000000061030051526032600452602461030051fd5b613c8c9150614b26565b61271d565b60646040517f08c379a000000000000000000000000000000000000000000000000000000000815260206004820152601060248201527f446561646c696e652065787069726564000000000000000000000000000000006044820152fd5b60646040517f08c379a000000000000000000000000000000000000000000000000000000000815260206004820152600e60248201527f496e76616c696420746f6b656e730000000000000000000000000000000000006044820152fd5b5073ffffffffffffffffffffffffffffffffffffffff613d71602460443501614b63565b16151561270a565b60646040517f08c379a000000000000000000000000000000000000000000000000000000000815260206004820152601760248201527f496e76616c696420726f757465207374727563747572650000000000000000006044820152fd5b60646040517f08c379a000000000000000000000000000000000000000000000000000000000815260206004820152601160248201527f496e76616c696420686f7020636f756e740000000000000000000000000000006044820152fd5b50600460448035013511156126ab565b60646040517f08c379a000000000000000000000000000000000000000000000000000000000815260206004820152600e60248201527f5265656e7472616e742063616c6c0000000000000000000000000000000000006044820152fd5b346102735760207ffffffffffffffffffffffffffffffffffffffffffffffffffffffffffffffffc360112610273577fdd2e6d9f52cbe8f695939d018b7d4a216dc613a669876163ac548b916489d9176020613efd6144dd565b73ffffffffffffffffffffffffffffffffffffffff90613f24826103005154163314614a85565b1680610300515260088252604061030051207fffffffffffffffffffffffffffffffffffffffffffffffffffffffffffffff008154169055604051908152a16103005180f35b346102735760207ffffffffffffffffffffffffffffffffffffffffffffffffffffffffffffffffc36011261027357613fa16144dd565b73ffffffffffffffffffffffffffffffffffffffff90613fc8826103005154163314614a85565b81610300519116915b600b91825480821015611e7f57829085613fea84614731565b939054600394851b1c161461400c575050614006919250614b26565b90613fd1565b7fffffffffffffffffffffffffffffffffffffffffffffffffffffffffffffffff929192938482019182116112f2576140579361404b611dbb93614731565b9054911b1c1691614731565b8154801561409c57019061406d611dfe83614731565b557f3302a1b37f04242bb55603f5449e7ecd690a35eef08ba1353c48c20e2aae9cda6103005180a26103005180f35b7f4e487b710000000000000000000000000000000000000000000000000000000061030051526031600452602461030051fd5b346102735760207ffffffffffffffffffffffffffffffffffffffffffffffffffffffffffffffffc3601126102735773ffffffffffffffffffffffffffffffffffffffff61411b6144dd565b166103005152600660205260206040610300512054604051908152f35b346102735761414636614472565b73ffffffffffffffffffffffffffffffffffffffff61416c816103005154163314614a85565b610300515b82811061417f576103005180f35b6141918261236461235f848789614b53565b610300519081600a928354915b828110614262575b50156141bd575b506141b89150614b26565b614171565b6141cb61235f838789614b53565b6801000000000000000082101561422f57611dbb826141b89560016141f295019055614797565b8261420161235f838789614b53565b167f7e419fa7e379da7a929a0f7de2f20704e903af3aa4cea3afc8345ef8a3cdbf1c6103005180a2856141ad565b7f4e487b710000000000000000000000000000000000000000000000000000000061030051526041600452602461030051fd5b8686898161428561235f8961427c889e9b9e9c9a9c614797565b97905495614b53565b169260031b1c16146142a55761429a90614b26565b95929593919361419e565b5050916001949194876141a6565b34610273576142e56142cd6142c736614521565b916151b7565b61048051604051928392604084526040840190614581565b9060208301520390f35b346102735761430661430036614521565b9161b782565b6040805173ffffffffffffffffffffffffffffffffffffffff939093168352602083019190915290f35b3461446d5761433e36614472565b73ffffffffffffffffffffffffffffffffffffffff61436281600054163314614a85565b610300515b828110614375576103005180f35b6143878261236461235f848789614b53565b610300519081600b928354915b828110614425575b50156143b3575b506143ae9150614b26565b614367565b6143c161235f838789614b53565b6801000000000000000082101561422f57611dbb826143ae9560016143e895019055614731565b826143f761235f838789614b53565b167f3db297c09c19972ba6a701ff373ab97e21ff1e4992e863c7abe44e9b2fed08476103005180a2856143a3565b8686898161443f61235f8961427c889e9b9e9c9a9c614731565b169260031b1c161461445f5761445490614b26565b959295939193614394565b50509160019491948761439c565b600080fd5b9060207ffffffffffffffffffffffffffffffffffffffffffffffffffffffffffffffffc83011261446d5760043567ffffffffffffffff9283821161446d578060238301121561446d57816004013593841161446d5760248460051b8301011161446d576024019190565b6004359073ffffffffffffffffffffffffffffffffffffffff8216820361446d57565b359073ffffffffffffffffffffffffffffffffffffffff8216820361446d57565b7ffffffffffffffffffffffffffffffffffffffffffffffffffffffffffffffffc606091011261446d576004359073ffffffffffffffffffffffffffffffffffffffff90602435828116810361446d5791604435908116810361446d5790565b906060608082019273ffffffffffffffffffffffffffffffffffffffff815116835273ffffffffffffffffffffffffffffffffffffffff60208201511660208401526040810151604084015201519160806060830152825180915260a0820190602060a08260051b8501019401916000905b82821061460257505050505090565b9091929395947fffffffffffffffffffffffffffffffffffffffffffffffffffffffffffffff60878203018252845190815180825260208201906020808260051b85010194019260005b828110614670575050505050602080600192960192019201909291959394956145f3565b90919293947fffffffffffffffffffffffffffffffffffffffffffffffffffffffffffffffe08382030185526040865173ffffffffffffffffffffffffffffffffffffffff815116835260208101516020840152015190606060408201526020608060608301928451809452019201906000905b808210614703575050506020806001929701950191019291909261464c565b90919260208060019273ffffffffffffffffffffffffffffffffffffffff87511681520194019201906146e4565b600b5481101561476857600b6000527f0175b7a638427703f0dbe7bb9bbf987a2551717b34e79f33b5b1008d1fa01db90190600090565b7f4e487b7100000000000000000000000000000000000000000000000000000000600052603260045260246000fd5b600a5481101561476857600a6000527fc65a7bb8d6351c1cf70c95a316cc6a92839c986682d98bc35f958f4883f9d2a80190600090565b6001548110156147685760016000527fb10e2d527612073b26eecdfd717e6a320cf44b4afac2b0732d9fcbe2b7fa0cf60190600090565b90815180825260208080930193019160005b828110614825575050505090565b835173ffffffffffffffffffffffffffffffffffffffff1685529381019392810192600101614817565b3461446d5760007ffffffffffffffffffffffffffffffffffffffffffffffffffffffffffffffffc36011261446d57602060405160048152f35b67ffffffffffffffff81116124d857604052565b6060810190811067ffffffffffffffff8211176124d857604052565b6080810190811067ffffffffffffffff8211176124d857604052565b6040810190811067ffffffffffffffff8211176124d857604052565b6020810190811067ffffffffffffffff8211176124d857604052565b60a0810190811067ffffffffffffffff8211176124d857604052565b60c0810190811067ffffffffffffffff8211176124d857604052565b90601f7fffffffffffffffffffffffffffffffffffffffffffffffffffffffffffffffe0910116810190811067ffffffffffffffff8211176124d857604052565b67ffffffffffffffff81116124d85760051b60200190565b81601f8201121561446d578035916149b583614986565b926149c36040519485614945565b808452602092838086019260051b82010192831161446d578301905b8282106149ed575050505090565b8380916149f984614500565b8152019101906149df565b9060807ffffffffffffffffffffffffffffffffffffffffffffffffffffffffffffffffc83011261446d576004359173ffffffffffffffffffffffffffffffffffffffff91602435838116810361446d5792604435908116810361446d57916064359067ffffffffffffffff821161446d57614a829160040161499e565b90565b15614a8c57565b60646040517f08c379a000000000000000000000000000000000000000000000000000000000815260206004820152600960248201527f4e6f74206f776e657200000000000000000000000000000000000000000000006044820152fd5b91908201809211614af757565b7f4e487b7100000000000000000000000000000000000000000000000000000000600052601160045260246000fd5b7fffffffffffffffffffffffffffffffffffffffffffffffffffffffffffffffff8114614af75760010190565b91908110156147685760051b0190565b3573ffffffffffffffffffffffffffffffffffffffff8116810361446d5790565b91908203918211614af757565b15614b9857565b60646040517f08c379a000000000000000000000000000000000000000000000000000000000815260206004820152601c60248201527f546f6b656e2063616e6e6f74206265207a65726f2061646472657373000000006044820152fd5b60405190600b548083528260209182820190600b6000527f0175b7a638427703f0dbe7bb9bbf987a2551717b34e79f33b5b1008d1fa01db9936000905b828210614c4b57505050614c4992500383614945565b565b855473ffffffffffffffffffffffffffffffffffffffff1684526001958601958895509381019390910190614c33565b60405190614c88826148b9565b606080836000815260006020820152600060408201520152565b15614ca957565b60646040517f08c379a000000000000000000000000000000000000000000000000000000000815260206004820152601d60248201527f416d6f756e74206d7573742062652067726561746572207468616e20300000006044820152fd5b15614d0e57565b60646040517f08c379a000000000000000000000000000000000000000000000000000000000815260206004820152601760248201527f496e76616c696420746f6b656e206164647265737365730000000000000000006044820152fd5b90614d7682614986565b614d836040519182614945565b8281527fffffffffffffffffffffffffffffffffffffffffffffffffffffffffffffffe0614db18294614986565b0190602036910137565b519073ffffffffffffffffffffffffffffffffffffffff8216820361446d57565b81601f8201121561446d57805191614df383614986565b92614e016040519485614945565b808452602092838086019260051b82010192831161446d578301905b828210614e2b575050505090565b838091614e3784614dbb565b815201910190614e1d565b9080601f8301121561446d578151614e5981614986565b92604091614e6983519586614945565b808552602093848087019260051b8401019381851161446d57858401925b858410614e98575050505050505090565b835167ffffffffffffffff9081811161446d578601916060807fffffffffffffffffffffffffffffffffffffffffffffffffffffffffffffffe0858803011261446d57845190614ee78261489d565b614ef28b8601614dbb565b8252858501518b83015284015192831161446d57614f17868b80969581960101614ddc565b85820152815201930192614e87565b9091614a829493608093835273ffffffffffffffffffffffffffffffffffffffff80921660208401521660408201528160608201520190614805565b60005b60408110614f71575050565b606082820152602001614f65565b60005b60208110614f8e575050565b606082820152602001614f82565b60005b60808110614fab575050565b606082820152602001614f9f565b8051156147685760200190565b8051600110156147685760400190565b8051600210156147685760600190565b8051600310156147685760800190565b8051600410156147685760a00190565b805160301015614768576106200190565b805160311015614768576106400190565b80518210156147685760209160051b010190565b8115615046570490565b7f4e487b7100000000000000000000000000000000000000000000000000000000600052601260045260246000fd5b919082604091031261446d57602061508c83614dbb565b92015190565b6040908151916150a1836148d5565b600183528291600091825b6020808210156150de578251602092916150c58261489d565b86825286818301526060858301528289010152016150ac565b50505091925050565b60409081516150f58161489d565b6002815280926000805b82811061510c5750505050565b602090835161511a8161489d565b8381528284818301526060868301528287010152016150ff565b9061513e82614986565b604061514c81519283614945565b8382527fffffffffffffffffffffffffffffffffffffffffffffffffffffffffffffffe061517a8395614986565b0191600090815b84811061518f575050505050565b602090845161519d8161489d565b848152828581830152606087830152828501015201615181565b6105205261060052610580526000610480526151d1614c7b565b506151e0610520511515614ca2565b73ffffffffffffffffffffffffffffffffffffffff6106005116151580618540575b61520b90614d07565b73ffffffffffffffffffffffffffffffffffffffff610580511673ffffffffffffffffffffffffffffffffffffffff6106005116146184bc57600154806105c0521561845e5760006108005261525f614c7b565b806108005273ffffffffffffffffffffffffffffffffffffffff6106005116905273ffffffffffffffffffffffffffffffffffffffff610580511660206108005101526000610480526152fb60006040516152b9816148f1565b818152604051809381927f7bb4f4da00000000000000000000000000000000000000000000000000000000835261058051610600516105205160048601614f26565b0381305afa80600092600092618415575b506183a0575b505073ffffffffffffffffffffffffffffffffffffffff6007541680610440528073ffffffffffffffffffffffffffffffffffffffff610600511614158091819261837c575b506180d0575b6040517f64735664000000000000000000000000000000000000000000000000000000008152600081600481305afa6000918161808f575b50617cd3575b506153a5614c7b565b506000610620526000610860526153ba614c7b565b806106205273ffffffffffffffffffffffffffffffffffffffff6106005116905273ffffffffffffffffffffffffffffffffffffffff61058051166020610620510152600060406106205101526000610860526154196105c051618562565b91610860515b6105c05181101561548c578073ffffffffffffffffffffffffffffffffffffffff61544c615487936147ce565b9190546040519261545c846148d5565b60031b1c1681526108605160208201526154768287615028565b526154818186615028565b50614b26565b61541f565b5091506154a761549a61a411565b610580516106005161aca3565b61084052610860516107e0526154bb614c7b565b806107205273ffffffffffffffffffffffffffffffffffffffff6106005116905273ffffffffffffffffffffffffffffffffffffffff61058051166020610720510152600460406107205101526040516155148161490d565b60048152610860515b60808110617cc25750606061072051015280617c9c575b6178b9575b615541614bf6565b61078052610860515b6107805180518210806178af575b15615a3d5761557c8273ffffffffffffffffffffffffffffffffffffffff92615028565b51169182158015615a1b575b80156159f9575b6159ee57610860515b6105c0518110156159dd576155ac816147ce565b90549073ffffffffffffffffffffffffffffffffffffffff828260031b1c16156159d2576155dd866106005161a62d565b61086051926040517fd06ca61f0000000000000000000000000000000000000000000000000000000081526105205160048201526040602482015261086051818061562b6044820187614805565b038173ffffffffffffffffffffffffffffffffffffffff868960031b1c165afa6108605191816159b7575b5061566e57505050505061566990614b26565b615598565b8098959792949896919396519060018211615955575b5050871561594457610860515b6105c0518110156159325773ffffffffffffffffffffffffffffffffffffffff6156ba826147ce565b90549060031b1c16908115615928576156d6610580518861a62d565b6107a05261086051604051927fd06ca61f0000000000000000000000000000000000000000000000000000000084528b600485015260406024850152610860518480615728604482016107a051614805565b0381845afa61086051948161590d575b5061574e5750506157499150614b26565b615691565b835160018111615876575b5061574993508115611211576107e0518211615776575050614b26565b61586e916107e0526002806040610720510152604051906157968261489d565b81526157a460208201614f62565b60606107205101526157c96157b7615092565b60606107205101519061185d82614fb9565b506040516157d68161489d565b73ffffffffffffffffffffffffffffffffffffffff888c60031b1c168152615822612710918260208201528a60408201526158176060610720510151614fb9565b519061185d82614fb9565b5061584061582e615092565b60606107205101519061187c82614fc6565b506040519161584e8361489d565b825260208201526107a05160408201526158176060610720510151614fc6565b503880611211565b809192507fffffffffffffffffffffffffffffffffffffffffffffffffffffffffffffffff8101116158da57615749937fffffffffffffffffffffffffffffffffffffffffffffffffffffffffffffffff6158d2920190615028565b519038615759565b7f4e487b710000000000000000000000000000000000000000000000000000000061086051526011600452602461086051fd5b61592191953d8091833e6113398183614945565b9338615738565b6157499150614b26565b50945094915050615669919450614b26565b945094915050615669919450614b26565b90809299507fffffffffffffffffffffffffffffffffffffffffffffffffffffffffffffffff8101116158da577fffffffffffffffffffffffffffffffffffffffffffffffffffffffffffffffff6159ae920190615028565b51963880615684565b6159cb91923d8091833e6113398183614945565b9038615656565b505061566990614b26565b5091506159e990614b26565b61554a565b91506159e990614b26565b5073ffffffffffffffffffffffffffffffffffffffff6105805116831461558f565b5073ffffffffffffffffffffffffffffffffffffffff61060051168314615588565b505061086051610460525b6105c0516104605190811015616f1557615a61906147ce565b90816105e0525490816104e05273ffffffffffffffffffffffffffffffffffffffff828260031b1c1615616f0e57615abb9173ffffffffffffffffffffffffffffffffffffffff9160031b1c16610580516106005161878f565b50151580616f02575b616d04575b506108405151600a9081811115616cfa5750610700525b61086051610680525b610700516106805190811015616ce357615b1b73ffffffffffffffffffffffffffffffffffffffff9161084051615028565b5116806107405280158015616cc1575b8015616c9f575b616c0c57615b669073ffffffffffffffffffffffffffffffffffffffff6104e0516105e05160031b1c16906106005161878f565b50816105005215908115616c93575b50616c125761086051610900526040517fd06ca61f00000000000000000000000000000000000000000000000000000000815261052051600482015260406024820152610860518180615bce6044820161050051614805565b038173ffffffffffffffffffffffffffffffffffffffff6104e0516105e05160031b1c165afa610860519181616c78575b50615c1b57505b615c1261068051614b26565b61068052615ae9565b8051906105005151821015616c17575b50506109005115616c1257615c426105c051618562565b6108c052610860515b6105c051811015615cb8578073ffffffffffffffffffffffffffffffffffffffff615c78615cb3936147ce565b90549060031b1c1660405190615c8d826148d5565b8152610860516020820152615ca5826108c051615028565b52615481816108c051615028565b615c4b565b50615ce76108c05173ffffffffffffffffffffffffffffffffffffffff6104e0516105e05160031b1c166186bf565b610860516107c0525b6105c0516107c05190811015616c0c57615d1e73ffffffffffffffffffffffffffffffffffffffff916147ce565b90549060031b1c16806104a0528015616b74576108c051615d3e9161865a565b15616bfb57615d576104a051610580516107405161878f565b50816109205215908115616c00575b50616bfb5761086051610660526040517fd06ca61f00000000000000000000000000000000000000000000000000000000815261090051600482015260406024820152610860518180615dbf6044820161092051614805565b03816104a0515afa90610860519082826106a052616bdd575b5050615df4575b615deb6107c051614b26565b6107c052615cf0565b6106a051516109205151811015616b7a575b50610660518015616b74576107e0518111616a98575b50615e296105c051618562565b6108a052610860515b6105c051811015615e6f5780615e4e615e6a926108c051615028565b51615e5c826108a051615028565b52615481816108a051615028565b615e32565b50615e806108a0516104a0516186bf565b6107805151806106c05260018101106158da57615ea260016106c05101614d6c565b806108e052615eb46104405191614fb9565b52610860515b6107805151811080616a40575b15615f145773ffffffffffffffffffffffffffffffffffffffff615eee8261078051615028565b5116906001810181116158da57615f0f916107f7600183016108e051615028565b615eba565b5061086051610640525b6108e05180519061064051918210156164fb5773ffffffffffffffffffffffffffffffffffffffff91615f5091615028565b5116806105a05280159081156164d8575b81156164b5575b81156164a8575b506164a35761086051610760525b6105c051610760519081101561648c57615fab73ffffffffffffffffffffffffffffffffffffffff916147ce565b90549060031b1c1690811561648557615fc76108a0518361865a565b1561648557615fdd826105a0516107405161878f565b5015801561647a575b6164725761086051906040517fd06ca61f000000000000000000000000000000000000000000000000000000008152610660516004820152604060248201526108605181806160386044820186614805565b0381885afa610860519181616457575b506160685750505090505b61605f61076051614b26565b61076052615f7d565b80518251811015616417575b5050811561640e576160886105c051618562565b92610860515b6105c0518110156160c557806160aa6160c0926108a051615028565b516160b58288615028565b526154818187615028565b61608e565b509391939290926160d682846186bf565b610860515b6105c0518110156164035773ffffffffffffffffffffffffffffffffffffffff616104826147ce565b90549060031b1c169081156163f95761611d848361865a565b156163f95761613382610580516105a05161878f565b509290921580156163ee575b6163e3576108605190604051937fd06ca61f0000000000000000000000000000000000000000000000000000000085528960048601526040602486015261086051858061618f6044820185614805565b0381855afa6108605195816163c8575b506161b6575050506161b19150614b26565b6160db565b84518151811015616364575b506161b1945082156161d9576107e05183116161e1575b505050614b26565b61635b926107e052600460406107205101526040516161ff8161490d565b6004815261620f60208201614f9c565b60606107205101526162226157b7615092565b5060405161622f8161489d565b73ffffffffffffffffffffffffffffffffffffffff6104e0516105e05160031b1c168152616279612710918260208201526105005160408201526158176060610720510151614fb9565b5061628561582e615092565b506162ba6040516162958161489d565b6104a05181528260208201526109205160408201526158176060610720510151614fc6565b506162de6162c6615092565b6060610720510151906162d882614fd6565b52614fd6565b5061630d6040516162ee8161489d565b8a81528260208201528b60408201526158176060610720510151614fd6565b50616331616319615092565b60606107205101519061632b82614fe6565b52614fe6565b506040519261633f8461489d565b8352602083015260408201526158176060610720510151614fe6565b503880806161d9565b809193507fffffffffffffffffffffffffffffffffffffffffffffffffffffffffffffffff8101116158da576161b1947fffffffffffffffffffffffffffffffffffffffffffffffffffffffffffffffff6163c0920190615028565b5191386161c2565b6163dc91963d8091833e6113398183614945565b943861619f565b506161b19150614b26565b50600283511061613f565b6161b19150614b26565b509350505050616053565b50509050616053565b909192507fffffffffffffffffffffffffffffffffffffffffffffffffffffffffffffffff81019081116158da5761644e91615028565b51903880616074565b61646b91923d8091833e6113398183614945565b9038616048565b509050616053565b506002815110615fe6565b9050616053565b505b61649a61064051614b26565b61064052615f1e565b61648e565b9050610740511438615f6f565b6105805173ffffffffffffffffffffffffffffffffffffffff1681149150615f68565b6106005173ffffffffffffffffffffffffffffffffffffffff1681149150615f61565b505061086051610820525b610840518051906108205191821080616a36575b15616a2f5773ffffffffffffffffffffffffffffffffffffffff9161653e91615028565b5116806106e0528015908115616a0c575b81156169e9575b81156169dc575b81156169cf575b81156169bf575b506169ba5761086051610560525b6105c05161056051908110156169a3576165a773ffffffffffffffffffffffffffffffffffffffff916147ce565b90549060031b1c1690811561699c576165c36108a0518361865a565b1561699c576165d86106e0516107405161a62d565b610860516040517fd06ca61f000000000000000000000000000000000000000000000000000000008152610660516004820152604060248201526108605181806166256044820187614805565b0381885afa610860519181616981575b506166555750505090505b61664c61056051614b26565b61056052616579565b805160018111616943575b5050801561693a576166746105c051618562565b92610860515b6105c05181101561669b57806160aa616696926108a051615028565b61667a565b509391939290926166ac82846186bf565b610860515b6105c05181101561692f5773ffffffffffffffffffffffffffffffffffffffff6166da826147ce565b90549060031b1c16908115616925576166f3848361865a565b1561692557616708610580516106e05161a62d565b61086051610540526040517fd06ca61f000000000000000000000000000000000000000000000000000000008152876004820152604060248201526108605181806167566044820186614805565b0381875afa90610860519082826104c052616907575b5050616782575061677d9150614b26565b6166b1565b6104c0515192600184116168a2575b61677d9350610540519182156161d9576107e05183116167b357505050614b26565b61635b926107e052600460406107205101526040516167d18161490d565b600481526167e160208201614f9c565b60606107205101526167f46157b7615092565b506040516168018161489d565b73ffffffffffffffffffffffffffffffffffffffff6104e0516105e05160031b1c16815261684b612710918260208201526105005160408201526158176060610720510151614fb9565b5061685761582e615092565b506168676040516162958161489d565b506168736162c6615092565b5061630d6040516168838161489d565b8a81528260208201528c60408201526158176060610720510151614fd6565b837fffffffffffffffffffffffffffffffffffffffffffffffffffffffffffffffff8101116158da576168fd7fffffffffffffffffffffffffffffffffffffffffffffffffffffffffffffffff61677d95016104c051615028565b5161054052616791565b61691a913d8091833e6113398183614945565b6104c052388061676c565b61677d9150614b26565b509350505050616640565b50509050616640565b9091507fffffffffffffffffffffffffffffffffffffffffffffffffffffffffffffffff81019081116158da5761697991615028565b513880616660565b61699591923d8091833e6113398183614945565b9038616635565b9050616640565b505b6169b161082051614b26565b61082052616506565b6169a5565b6169c9915061a3a9565b3861656b565b6104405181149150616564565b610740518114915061655d565b6105805173ffffffffffffffffffffffffffffffffffffffff1681149150616556565b6106005173ffffffffffffffffffffffffffffffffffffffff168114915061654f565b5050615ddf565b506005821061651a565b506108e05151807fffffffffffffffffffffffffffffffffffffffffffffffffffffffffffffffff8101116158da577fffffffffffffffffffffffffffffffffffffffffffffffffffffffffffffffff018110615ec7565b6107e052600280604061072051015260405190616ab48261489d565b8152616ac260208201614f62565b6060610720510152616ad56157b7615092565b50616b6d604051616ae58161489d565b73ffffffffffffffffffffffffffffffffffffffff6104e0516105e05160031b1c168152616b2f612710918260208201526105005160408201526158176060610720510151614fb9565b50616b3b61582e615092565b5060405190616b498261489d565b6104a051825260208201526109205160408201526158176060610720510151614fc6565b5038615e1c565b50615ddf565b807fffffffffffffffffffffffffffffffffffffffffffffffffffffffffffffffff8101116158da577fffffffffffffffffffffffffffffffffffffffffffffffffffffffffffffffff616bd291016106a051615028565b516106605238615e06565b616bf0913d8091833e6113398183614945565b6106a0523880615dd8565b615ddf565b60029150511038615d66565b50615c06565b615c06565b817fffffffffffffffffffffffffffffffffffffffffffffffffffffffffffffffff8101116158da577fffffffffffffffffffffffffffffffffffffffffffffffffffffffffffffffff616c6c920190615028565b51610900523880615c2b565b616c8c91923d8091833e6113398183614945565b9038615bff565b60029150511038615b75565b5073ffffffffffffffffffffffffffffffffffffffff61058051168114615b32565b5073ffffffffffffffffffffffffffffffffffffffff61060051168114615b2b565b505b616cf161046051614b26565b61046052615a48565b6107005250615ae0565b61086051906040517fd06ca61f0000000000000000000000000000000000000000000000000000000081526105205160048201526024604081830152610860518280616d536044820187614805565b038173ffffffffffffffffffffffffffffffffffffffff6104e0516105e05160031b1c165afa610860519281616ee7575b50616e3b5750506108605191505b6107e0518211616da3575b50615ac9565b616e33916107e05260016040610720510152604051616dc1816148d5565b60018152616dd160208201614f7f565b6060610720510152616de46157b7615092565b5060405190616df28261489d565b73ffffffffffffffffffffffffffffffffffffffff6104e0516105e05160031b1c168252612710602083015260408201526158176060610720510151614fb9565b503880616d9d565b8151908351821015616e50575b505050616d92565b9080929394507fffffffffffffffffffffffffffffffffffffffffffffffffffffffffffffffff810111616eb65750907fffffffffffffffffffffffffffffffffffffffffffffffffffffffffffffffff616eac920190615028565b5190388080616e48565b7f4e487b71000000000000000000000000000000000000000000000000000000006108605152601160045261086051fd5b616efb91933d8091833e6113398183614945565b9138616d84565b50600281511015615ac4565b5050616ce5565b506107e0518061789d575b5061048051610860519081118061788d575b61787b575b50616f40614c7b565b50616f49614c7b565b9073ffffffffffffffffffffffffffffffffffffffff6106005116825273ffffffffffffffffffffffffffffffffffffffff6105805116602083015260006040830152600090616fa361058051610600516105205161bc65565b929060009360005b82518110156178715773ffffffffffffffffffffffffffffffffffffffff616fd38285615028565b511615158061785e575b616fef57616fea90614b26565b616fab565b50509091925060015b617685575b5061700961549a61a411565b906000925b825184108061767b575b156173e65773ffffffffffffffffffffffffffffffffffffffff61703c8585615028565b511692831580156173c4575b80156173a2575b617395576040519161706083614929565b6005835260a03660208501376107d061707884614fb9565b52610fa061708584614fc6565b5261138861709284614fd6565b5261177061709f84614fe6565b52611f406170ac84614ff6565b5260005b835181101561737c576170c38185615028565b5161271081810311614af75780896127106170e28a946105205161a3fe565b04916170f18361052051614b84565b9280158015617374575b617366578461710e91610600519061b782565b73ffffffffffffffffffffffffffffffffffffffff8293921615801561735e575b61734f576171429086610580519161b782565b92909473ffffffffffffffffffffffffffffffffffffffff8616158015617347575b6171b05761058051610600516171799261b782565b909373ffffffffffffffffffffffffffffffffffffffff851615801561733f575b61732e57906171a891614aea565b8b81116171c5575b505050505050506171c090614b26565b6170b0565b6171c097969b509261731f9594926172676172c19361722d615817979f6060600298896040820152604051996171fa8b61489d565b8a5261720860208b01614f62565b019788526172236172176150e7565b89519061185d82614fb9565b506106005161a62d565b73ffffffffffffffffffffffffffffffffffffffff6040519261724f8461489d565b16825283602083015260408201526158178651614fb9565b50617278610580516106005161a62d565b9073ffffffffffffffffffffffffffffffffffffffff6040519361729b8561489d565b16835261271003602083015260408201526172b68351614fb9565b519061187c82614fc6565b506172d96172cd615092565b82519061187c82614fc6565b506172e7610580518c61a62d565b73ffffffffffffffffffffffffffffffffffffffff604051946173098661489d565b1684526127106020850152604084015251614fc6565b509050853889818080806171b0565b50505050505050506171c090614b26565b50811561719a565b508315617164565b5050505050506171c090614b26565b50801561712f565b50505050506171c090614b26565b5083156170fb565b50949092935061738c9150614b26565b9291909161700e565b9192509261738c90614b26565b5073ffffffffffffffffffffffffffffffffffffffff6105805116841461704f565b5073ffffffffffffffffffffffffffffffffffffffff61060051168414617048565b93915091506104805182118061766e575b61765f575b505061048051801590811561764f575b506174a7575b61048051151580617497575b1561742a576108005190565b604051617436816148f1565b6000815260405190617447826148b9565b73ffffffffffffffffffffffffffffffffffffffff6106005116825273ffffffffffffffffffffffffffffffffffffffff6105805116602083015260006040830152606082015290600061048052565b506040610800510151151561741e565b6174fa60006040516174b8816148f1565b818152604051809381927fba4200d100000000000000000000000000000000000000000000000000000000835261058051610600516105205160048601614f26565b0381305afa80600092600092617545575b50617518575b5050617412565b61048051821180617538575b156175115761080052610480523880617511565b5060408101511515617524565b925090503d806000843e6175598184614945565b82019160408184031261446d57805190602081015167ffffffffffffffff9182821161446d57019360808582031261446d5760405194617598866148b9565b6175a181614dbb565b86526175af60208201614dbb565b60208701526040810151604087015260608101519083821161446d57019181601f8401121561446d578251926175e484614986565b936175f26040519586614945565b80855260208086019160051b8301019284841161446d5760208301915b84831061762957505050505050606084015291903861750b565b825182811161446d5760209161764488848094890101614e42565b81520192019161760f565b90506105205160011c113861740c565b610800526104805238806173fc565b50604081015115156173f7565b5060058410617018565b61769a8161058051610600516105205161c0c0565b816176a7575b5050616ffd565b9194909250600160408201526040516176bf816148d5565b600181526176cf60208201614f7f565b606082015260009260005b86518110156177475773ffffffffffffffffffffffffffffffffffffffff6177028289615028565b5116151580617734575b61771f575b61771a90614b26565b6176da565b9361772c61771a91614b26565b949050617711565b5061773f8185615028565b51151561770c565b50939190949261775961776891615134565b60608701519061185d82614fb9565b5060009160005b84518110156178505773ffffffffffffffffffffffffffffffffffffffff6177978287615028565b511615158061783d575b6177b4575b6177af90614b26565b61776f565b92617835816154816177af9373ffffffffffffffffffffffffffffffffffffffff6177df898b615028565b51166177eb8989615028565b516177fc610580516106005161a62d565b906040519261780a8461489d565b83526020830152604082015261782360608d0151614fb9565b519061782f8383615028565b52615028565b9390506177a6565b506178488184615028565b5115156177a1565b5093925050503880806176a0565b506178698183615028565b511515616fdd565b5050909192616ff8565b61062051610800526104805238616f37565b5060406106205101511515616f32565b61072051610620526108605238616f20565b5060028210615558565b610860515b6105c051811015617c96576178d2816147ce565b90549073ffffffffffffffffffffffffffffffffffffffff828260031b1c1615617c8b57617906610440516106005161a62d565b9161086051926040517fd06ca61f000000000000000000000000000000000000000000000000000000008152610520516004820152604060248201526108605181806179556044820186614805565b038173ffffffffffffffffffffffffffffffffffffffff878960031b1c165afa610860519181617c70575b5061799857505050505061799390614b26565b6178be565b80969192939496519060018211617c0e575b50508515617c0057610860515b6105c051811015617bf15773ffffffffffffffffffffffffffffffffffffffff6179e0826147ce565b90549060031b1c16908115617be7576179ff610580516104405161a62d565b6108805261086051604051927fd06ca61f00000000000000000000000000000000000000000000000000000000845289600485015260406024850152610860518480617a516044820161088051614805565b0381845afa610860519481617bcc575b50617a77575050617a729150614b26565b6179b7565b835160018111617b68575b50617a7293508115611211576107e0518211617a9f575050614b26565b61586e916107e052600280604061072051015260405190617abf8261489d565b8152617acd60208201614f62565b6060610720510152617ae06157b7615092565b50604051617aed8161489d565b73ffffffffffffffffffffffffffffffffffffffff888a60031b1c168152617b2e612710918260208201528860408201526158176060610720510151614fb9565b50617b3a61582e615092565b5060405191617b488361489d565b825260208201526108805160408201526158176060610720510151614fc6565b809192507fffffffffffffffffffffffffffffffffffffffffffffffffffffffffffffffff8101116158da57617a72937fffffffffffffffffffffffffffffffffffffffffffffffffffffffffffffffff617bc4920190615028565b519038617a82565b617be091953d8091833e6113398183614945565b9338617a61565b617a729150614b26565b50945050505061799390614b26565b945050505061799390614b26565b90809297507fffffffffffffffffffffffffffffffffffffffffffffffffffffffffffffffff8101116158da577fffffffffffffffffffffffffffffffffffffffffffffffffffffffffffffffff617c67920190615028565b519438806179aa565b617c8491923d8091833e6113398183614945565b9038617980565b505061799390614b26565b50615539565b506104405173ffffffffffffffffffffffffffffffffffffffff61058051161415615534565b80606060208093850101520161551d565b9160005b8351811080618085575b1561807c578073ffffffffffffffffffffffffffffffffffffffff617d09617da09387615028565b51168015801561805a575b8015618038575b801561801f575b61548157604080517f0a90f27b0000000000000000000000000000000000000000000000000000000081526106005161052051600483015273ffffffffffffffffffffffffffffffffffffffff9081166024830152831660448201529081606481305afa9182600092600094617ff8575b50617da557505050614b26565b617cd7565b82151580617fd9575b156161d957604080517f0a90f27b00000000000000000000000000000000000000000000000000000000815261058051600482019590955273ffffffffffffffffffffffffffffffffffffffff8381166024830152909416604485015283606481305afa9283600091600095617fa6575b50617e2b575b506161d9565b61048051841180617f87575b15617e2557615817617f7592617e4b614c7b565b9473ffffffffffffffffffffffffffffffffffffffff6106005116865273ffffffffffffffffffffffffffffffffffffffff61058051166020870152617f3f60029283604089015260405193617ea08561489d565b8452617eae60208501614f62565b60608801938452617ecc617ec0615092565b85519061185d82614fb9565b50617f1c617edd826106005161a62d565b9373ffffffffffffffffffffffffffffffffffffffff60405191617f008361489d565b1681526127109485602083015260408201526158178651614fb9565b50617f34617f28615092565b85519061187c82614fc6565b50610580519061a62d565b9073ffffffffffffffffffffffffffffffffffffffff60405195617f628761489d565b1685526020850152604084015251614fc6565b50610800526104805238808080617e25565b5073ffffffffffffffffffffffffffffffffffffffff81161515617e37565b909450617fcb915060403d604011617fd2575b617fc38183614945565b810190615075565b9338617e1f565b503d617fb9565b5073ffffffffffffffffffffffffffffffffffffffff82161515617dae565b90935061801591925060403d604011617fd257617fc38183614945565b9190919238617d93565b5080600052600860205260ff6040600020541615617d22565b5073ffffffffffffffffffffffffffffffffffffffff61058051168114617d1b565b5073ffffffffffffffffffffffffffffffffffffffff61060051168114617d14565b5091503861539c565b5060028110617ce1565b9091503d806000833e6180a28183614945565b810160208282031261446d57815167ffffffffffffffff811161446d576180c99201614ddc565b9038615396565b604080517f0a90f27b00000000000000000000000000000000000000000000000000000000808252610440516106005161052051600485015273ffffffffffffffffffffffffffffffffffffffff90811660248501521660448301529181606481305afa9182600092600094618355575b5061814f575b50505061535e565b82151580618336575b618162575b618147565b604080519182526105805161044051600484019590955273ffffffffffffffffffffffffffffffffffffffff94851660248401529390931660448201529182606481305afa9182600091600094618313575b501561814757821515806182f4575b806182e8575b1561815d576182d7906158176181dd614c7b565b9373ffffffffffffffffffffffffffffffffffffffff6106005116855273ffffffffffffffffffffffffffffffffffffffff61058051166020860152600260408601526040519061822d8261489d565b6002825261823d60208301614f62565b6060860191825261825b61824f615092565b83519061185d82614fb9565b506182ae61826f610440516106005161a62d565b9173ffffffffffffffffffffffffffffffffffffffff604051916182928361489d565b1681526127109283602083015260408201526158178451614fb9565b506182c66182ba615092565b83519061187c82614fc6565b50617f3f610580516104405161a62d565b506108005261048052388080618147565b506104805183116181c9565b5073ffffffffffffffffffffffffffffffffffffffff811615156181c3565b90935061832f915060403d604011617fd257617fc38183614945565b92386181b4565b5073ffffffffffffffffffffffffffffffffffffffff82161515618158565b90935061837291925060403d604011617fd257617fc38183614945565b9190919238618141565b905073ffffffffffffffffffffffffffffffffffffffff6105805116141538615358565b8115158061840b575b15615312576183eb9060016040610800510152604051906183c9826148d5565b600182526183d960208301614f7f565b81606061080051015261185d82614fb9565b5080610480526105205160011c10618404573880615312565b6108005190565b50805115156183a9565b925090503d806000843e6184298184614945565b82019160408184031261446d57805192602082015167ffffffffffffffff811161446d576184579201614e42565b903861530c565b60646040517f08c379a000000000000000000000000000000000000000000000000000000000815260206004820152601560248201527f4e6f20726f757465727320636f6e6669677572656400000000000000000000006044820152fd5b60846040517f08c379a000000000000000000000000000000000000000000000000000000000815260206004820152602960248201527f496e70757420616e64206f757470757420746f6b656e73206d7573742062652060448201527f646966666572656e7400000000000000000000000000000000000000000000006064820152fd5b506105805173ffffffffffffffffffffffffffffffffffffffff161515615202565b9061856c82614986565b60409061857b82519182614945565b8381527fffffffffffffffffffffffffffffffffffffffffffffffffffffffffffffffe06185a98295614986565b0191600090815b8481106185be575050505050565b60209082516185cc816148d5565b8481528285818301528287010152016185b0565b602090818184031261446d5780519067ffffffffffffffff821161446d57019180601f8401121561446d57825161861681614986565b936186246040519586614945565b818552838086019260051b82010192831161446d578301905b82821061864b575050505090565b8151815290830190830161863d565b9060005b81518110156186b75773ffffffffffffffffffffffffffffffffffffffff806186878385615028565b515116908416146186a05761869b90614b26565b61865e565b600292506186b090602092615028565b5101511090565b505050600190565b9060005b81518110156187225773ffffffffffffffffffffffffffffffffffffffff806186ec8385615028565b515116908416146187055761870090614b26565b6186c3565b6020925061871291615028565b510161871e8151614b26565b9052565b5060005b815181101561878a5773ffffffffffffffffffffffffffffffffffffffff8061874f8385615028565b51511615618766575061876190614b26565b618726565b90826001946187859361877b84602097615028565b5191169052615028565b510152565b505050565b9092919260609060009160006040516187a78161489d565b6002815260403660208301376187bc81614fb9565b73ffffffffffffffffffffffffffffffffffffffff871690526187de81614fc6565b73ffffffffffffffffffffffffffffffffffffffff851690526040517fd06ca61f00000000000000000000000000000000000000000000000000000000815260016004820152604060248201526000818061883c6044820186614805565b038173ffffffffffffffffffffffffffffffffffffffff8d165afa6000918161a38c575b5061a2f7575b505061887a61887361a411565b848761aca3565b9560405192618888846148b9565b60038452606036602086013773ffffffffffffffffffffffffffffffffffffffff6007541697886188b886614fb9565b526188c1614bf6565b98895161a2c8575b60018a511161a299575b60005b8651811015618b51578b73ffffffffffffffffffffffffffffffffffffffff6188ff838a615028565b511680158015618b32575b8015618b13575b6189eb5760405190618922826148b9565b60038252606036602084013773ffffffffffffffffffffffffffffffffffffffff8d1661894e83614fb9565b5261895882614fc6565b5273ffffffffffffffffffffffffffffffffffffffff8a1661897982614fd6565b52600060405180937fd06ca61f0000000000000000000000000000000000000000000000000000000082526127106004830152604060248301528173ffffffffffffffffffffffffffffffffffffffff816189d76044820188614805565b0392165afa60009281618af6575b506189fb575b50506189f690614b26565b6188d6565b8151600281119081618ab8575b50156189eb578151807fffffffffffffffffffffffffffffffffffffffffffffffffffffffffffffffff810111614af757618a667fffffffffffffffffffffffffffffffffffffffffffffffffffffffffffffffff8d920184615028565b5111156189eb57929950935094509180517fffffffffffffffffffffffffffffffffffffffffffffffffffffffffffffffff8101908111614af757618aaa91615028565b51966002946189f6386189eb565b7fffffffffffffffffffffffffffffffffffffffffffffffffffffffffffffffff810191508111614af757618aed9083615028565b51151538618a08565b618b0c9193503d806000833e6113398183614945565b91386189e5565b5073ffffffffffffffffffffffffffffffffffffffff8a168114618911565b5073ffffffffffffffffffffffffffffffffffffffff8c16811461890a565b5091969995939890929794508251600a811160001461a2945750600a5b60005b818110619f32575b50508915619688575b8915618c9e575b50505050508151151580618c95575b618ba3575b50929190565b600060405180927fd06ca61f000000000000000000000000000000000000000000000000000000008252670de0b6b3a76400006004830152604060248301528173ffffffffffffffffffffffffffffffffffffffff81618c066044820189614805565b0392165afa60009181618c78575b5015618b9d57805182517fffffffffffffffffffffffffffffffffffffffffffffffffffffffffffffffff91828201918211614af75711618c56575b50618b9d565b908092955051908101908111614af757618c6f91615028565b51923880618c50565b618c8e9192503d806000833e6113398183614945565b9038618c14565b50841515618b98565b8173ffffffffffffffffffffffffffffffffffffffff8616141580619668575b8061965c575b6191ca575b50508715618cd9575b8080618b89565b6000979491939796929596928151600581116000146191c157506005979190915b6000935b898510806191b7575b156191a45773ffffffffffffffffffffffffffffffffffffffff618d2b8685615028565b51169384158015619185575b8015619166575b619159576000959195925b8b84108061914f575b156191385783831461912b5773ffffffffffffffffffffffffffffffffffffffff618d7d8587615028565b5116968715801561910c575b80156190ed575b80156190e4575b6190d75760008e8e5b8210806190cd575b156190b55781861480156190ac575b6190a2578d73ffffffffffffffffffffffffffffffffffffffff618ddb848b615028565b51169b8c158e8115619082575b8115619062575b508015619059575b8015619050575b61904357618e0b90614b26565b9b73ffffffffffffffffffffffffffffffffffffffff60405192618e2e84614929565b6005845260a036602086013716618e4483614fb9565b528a618e4f83614fc6565b528b618e5a83614fd6565b52618e6482614fe6565b5273ffffffffffffffffffffffffffffffffffffffff8d16618e8582614ff6565b52600060405180937fd06ca61f0000000000000000000000000000000000000000000000000000000082526127106004830152604060248301528173ffffffffffffffffffffffffffffffffffffffff81618ee36044820188614805565b0392165afa60009281619026575b50618f09575b5050618f0290614b26565b8e8e618da0565b8151600481119081618fe8575b5015618ef7578151807fffffffffffffffffffffffffffffffffffffffffffffffffffffffffffffffff810111614af757618f748f917fffffffffffffffffffffffffffffffffffffffffffffffffffffffffffffffff0184615028565b511115618ef75792509b50925099805190817fffffffffffffffffffffffffffffffffffffffffffffffffffffffffffffffff810111614af7577fffffffffffffffffffffffffffffffffffffffffffffffffffffffffffffffff618fda920190615028565b5199600492618f0238618ef7565b7fffffffffffffffffffffffffffffffffffffffffffffffffffffffffffffffff810191508111614af75761901d9083615028565b51151538618f16565b61903c9193503d806000833e6113398183614945565b9138618ef1565b9b505050618f0290614b26565b508b8d14618dfe565b508a8d14618df7565b73ffffffffffffffffffffffffffffffffffffffff9150168d148e618def565b73ffffffffffffffffffffffffffffffffffffffff84168f149150618de8565b50618f0290614b26565b50818714618db7565b5050929650926190c490614b26565b92959195618d49565b5060038b10618da8565b929650926190c490614b26565b50868814618d97565b5073ffffffffffffffffffffffffffffffffffffffff8a168814618d90565b5073ffffffffffffffffffffffffffffffffffffffff8c168814618d89565b926190c490969296614b26565b925092935061914690614b26565b93929192618cfe565b5060038810618d52565b9293509361914690614b26565b5073ffffffffffffffffffffffffffffffffffffffff88168514618d3e565b5073ffffffffffffffffffffffffffffffffffffffff8a168514618d37565b9699955096505095505050388080618cd2565b5060038610618d07565b97919091618cfa565b604051916191d783614929565b6005835260a036602085013773ffffffffffffffffffffffffffffffffffffffff861661920384614fb9565b528061920e84614fc6565b5273ffffffffffffffffffffffffffffffffffffffff61922d83614fb9565b511661923884614fd6565b5273ffffffffffffffffffffffffffffffffffffffff61925783614fc6565b511661926284614fe6565b5273ffffffffffffffffffffffffffffffffffffffff851661928384614ff6565b526040517fd06ca61f000000000000000000000000000000000000000000000000000000008152612710600482015260406024820152600081806192ca6044820188614805565b038173ffffffffffffffffffffffffffffffffffffffff8c165afa6000918161963f575b50619502575b508351619302575b50618cc9565b73ffffffffffffffffffffffffffffffffffffffff916193489183881661932886614fb9565b528361933387614fb9565b511661933e86614fc6565b5261185d85614fd6565b511661935382614fe6565b5273ffffffffffffffffffffffffffffffffffffffff831661937482614ff6565b52604051907fd06ca61f000000000000000000000000000000000000000000000000000000008252612710600483015260406024830152600082806193bc6044820185614805565b038173ffffffffffffffffffffffffffffffffffffffff8a165afa600092816194e5575b506193ec575b806192fc565b81516004811190816194a7575b50156193e6578151807fffffffffffffffffffffffffffffffffffffffffffffffffffffffffffffffff810111614af7576194577fffffffffffffffffffffffffffffffffffffffffffffffffffffffffffffffff8c920184615028565b5111156193e657929850945095509280517fffffffffffffffffffffffffffffffffffffffffffffffffffffffffffffffff8101908111614af75761949b91615028565b519560049538806193e6565b7fffffffffffffffffffffffffffffffffffffffffffffffffffffffffffffffff810191508111614af7576194dc9083615028565b511515386193f9565b6194fb9193503d806000833e6113398183614945565b91386193e0565b80516004811190816195df575b50156192f4578051807fffffffffffffffffffffffffffffffffffffffffffffffffffffffffffffffff810111614af75761956d7fffffffffffffffffffffffffffffffffffffffffffffffffffffffffffffffff8e920183615028565b5111156192f4579750985098508095805190817fffffffffffffffffffffffffffffffffffffffffffffffffffffffffffffffff810111614af7577fffffffffffffffffffffffffffffffffffffffffffffffffffffffffffffffff6195d4920190615028565b5198600498386192f4565b8091507fffffffffffffffffffffffffffffffffffffffffffffffffffffffffffffffff810111614af7577fffffffffffffffffffffffffffffffffffffffffffffffffffffffffffffffff619636910182615028565b5115153861950f565b6196559192503d806000833e6113398183614945565b90386192ee565b50600281511015618cc4565b508173ffffffffffffffffffffffffffffffffffffffff85161415618cbe565b9294989593968173ffffffffffffffffffffffffffffffffffffffff899a939a16141580619f12575b80619f08575b619a63575b600094835160078111600014619a58575060079991929490945b6000935b8b851080619a4e575b15619a3c5773ffffffffffffffffffffffffffffffffffffffff6197078688615028565b51169687158015619a1d575b80156199fe575b6199ef5760008e8e5b8210806199e5575b156199c9578188146199bf578d73ffffffffffffffffffffffffffffffffffffffff619757848c615028565b51169b8c158e811561999f575b811561997f575b508015619976575b6199695761978090614b26565b9b73ffffffffffffffffffffffffffffffffffffffff604051926197a38461490d565b600484526080366020860137166197b983614fb9565b528b6197c483614fc6565b526197ce82614fd6565b5273ffffffffffffffffffffffffffffffffffffffff8d166197ef82614fe6565b52600060405180937fd06ca61f0000000000000000000000000000000000000000000000000000000082526127106004830152604060248301528173ffffffffffffffffffffffffffffffffffffffff8161984d6044820188614805565b0392165afa6000928161994c575b50619873575b505061986c90614b26565b8e8e619723565b815160038111908161990e575b50156198615781517fffffffffffffffffffffffffffffffffffffffffffffffffffffffffffffffff8101908111614af7576198bd8f9184615028565b5111156198615792509b5092509980517fffffffffffffffffffffffffffffffffffffffffffffffffffffffffffffffff8101908111614af75761990091615028565b519960039261986c38619861565b7fffffffffffffffffffffffffffffffffffffffffffffffffffffffffffffffff810191508111614af7576199439083615028565b51151538619880565b6199629193503d806000833e6113398183614945565b913861985b565b9b50505061986c90614b26565b508b8d14619773565b73ffffffffffffffffffffffffffffffffffffffff9150168d148e61976b565b73ffffffffffffffffffffffffffffffffffffffff84168f149150619764565b5061986c90614b26565b50509296509290936199da90614b26565b9390929591956196da565b5060058b1061972b565b9296509290936199da90614b26565b5073ffffffffffffffffffffffffffffffffffffffff8a16881461971a565b5073ffffffffffffffffffffffffffffffffffffffff8c168814619713565b99965099509091509894929598618b82565b50600588106196e3565b9991929490946196d6565b604051619a6f8161490d565b60048152608036602083013773ffffffffffffffffffffffffffffffffffffffff8916619a9b82614fb9565b5289619aa682614fc6565b5273ffffffffffffffffffffffffffffffffffffffff619ac586614fb9565b5116619ad082614fd6565b5273ffffffffffffffffffffffffffffffffffffffff8716619af182614fe6565b526040517fd06ca61f0000000000000000000000000000000000000000000000000000000081526127106004820152604060248201526000818d8173ffffffffffffffffffffffffffffffffffffffff81619b4f6044820189614805565b0392165afa60009181619eeb575b50619dae575b5073ffffffffffffffffffffffffffffffffffffffff8916619b8482614fb9565b5273ffffffffffffffffffffffffffffffffffffffff619ba386614fb9565b5116619bae82614fc6565b5289619bb982614fd6565b5273ffffffffffffffffffffffffffffffffffffffff8716619bda82614fe6565b52604051907fd06ca61f0000000000000000000000000000000000000000000000000000000082526127106004830152604060248301526000828d8173ffffffffffffffffffffffffffffffffffffffff81619c396044820188614805565b0392165afa60009281619d91575b50619c54575b50506196bc565b8151600381119081619d31575b5015619c4d578151807fffffffffffffffffffffffffffffffffffffffffffffffffffffffffffffffff810111614af757619cbf7fffffffffffffffffffffffffffffffffffffffffffffffffffffffffffffffff8b920184615028565b511115619c4d5792509450955092805190817fffffffffffffffffffffffffffffffffffffffffffffffffffffffffffffffff810111614af7577fffffffffffffffffffffffffffffffffffffffffffffffffffffffffffffffff619d25920190615028565b51946003903880619c4d565b8091507fffffffffffffffffffffffffffffffffffffffffffffffffffffffffffffffff810111614af7577fffffffffffffffffffffffffffffffffffffffffffffffffffffffffffffffff619d88910183615028565b51151538619c61565b619da79193503d806000833e6113398183614945565b9138619c47565b8051600381119081619e8b575b5015619b63578051807fffffffffffffffffffffffffffffffffffffffffffffffffffffffffffffffff810111614af757619e197fffffffffffffffffffffffffffffffffffffffffffffffffffffffffffffffff8b920183615028565b511115619b63579550915095508093805190817fffffffffffffffffffffffffffffffffffffffffffffffffffffffffffffffff810111614af7577fffffffffffffffffffffffffffffffffffffffffffffffffffffffffffffffff619e80920190615028565b519560039138619b63565b8091507fffffffffffffffffffffffffffffffffffffffffffffffffffffffffffffffff810111614af7577fffffffffffffffffffffffffffffffffffffffffffffffffffffffffffffffff619ee2910182615028565b51151538619dbb565b619f019192503d806000833e6113398183614945565b9038619b5d565b50835115156196b7565b508873ffffffffffffffffffffffffffffffffffffffff871614156196b1565b73ffffffffffffffffffffffffffffffffffffffff619f518287615028565b51168015801561a275575b801561a256575b801561a24d575b801561a21a575b801561a1e6575b61a1dc5760405190619f89826148b9565b60038252606036602084013773ffffffffffffffffffffffffffffffffffffffff8916619fb583614fb9565b52619fbf82614fc6565b5273ffffffffffffffffffffffffffffffffffffffff8716619fe082614fd6565b52604051907fd06ca61f0000000000000000000000000000000000000000000000000000000082526127106004830152604060248301526000828b8173ffffffffffffffffffffffffffffffffffffffff8161a03f6044820188614805565b0392165afa6000928161a1bf575b5061a081575b505060028b148061a076575b61a0715761a06c90614b26565b618b71565b618b79565b50600381101561a05f565b815160028111908161a15f575b501561a053578151807fffffffffffffffffffffffffffffffffffffffffffffffffffffffffffffffff810111614af75761a0ec8f917fffffffffffffffffffffffffffffffffffffffffffffffffffffffffffffffff0184615028565b51111561a05357929c509850995096805190817fffffffffffffffffffffffffffffffffffffffffffffffffffffffffffffffff810111614af7577fffffffffffffffffffffffffffffffffffffffffffffffffffffffffffffffff61a153920190615028565b5199600299388061a053565b8091507fffffffffffffffffffffffffffffffffffffffffffffffffffffffffffffffff810111614af7577fffffffffffffffffffffffffffffffffffffffffffffffffffffffffffffffff61a1b6910183615028565b5115153861a08e565b61a1d59193503d806000833e6113398183614945565b913861a04d565b5061a06c90614b26565b5060018451118015619f78575073ffffffffffffffffffffffffffffffffffffffff61a21185614fc6565b51168114619f78565b50835115158015619f71575073ffffffffffffffffffffffffffffffffffffffff61a24485614fb9565b51168114619f71565b50848114619f6a565b5073ffffffffffffffffffffffffffffffffffffffff87168114619f63565b5073ffffffffffffffffffffffffffffffffffffffff88168114619f5c565b618b6e565b73ffffffffffffffffffffffffffffffffffffffff61a2b78b614fc6565b511661a2c287614fd6565b526188d3565b73ffffffffffffffffffffffffffffffffffffffff61a2e68b614fb9565b511661a2f187614fc6565b526188c9565b805160018111908161a34e575b501561886657955096505050505080517fffffffffffffffffffffffffffffffffffffffffffffffffffffffffffffffff8101908111614af75761a34791615028565b5190600190565b7fffffffffffffffffffffffffffffffffffffffffffffffffffffffffffffffff810191508111614af75761a3839082615028565b5115153861a304565b61a3a29192503d806000833e6113398183614945565b9038618860565b61a3b1614bf6565b9060005b825181101561a3f65773ffffffffffffffffffffffffffffffffffffffff8061a3de8386615028565b5116908316146186b75761a3f190614b26565b61a3b5565b505050600090565b81810292918115918404141715614af757565b600a54600190818101808211614af75761a42a90614d6c565b9073ffffffffffffffffffffffffffffffffffffffff90816007541661a44f84614fb9565b5260005b81811061a5fc575050604051918283600b54808352602080930190600b6000527f0175b7a638427703f0dbe7bb9bbf987a2551717b34e79f33b5b1008d1fa01db9936000905b8983831061a5e1575050505061a4b192500384614945565b61a4c661a4c18251855190614aea565b614d6c565b936000938185815b61a5be575b506000905b61a51c575b5050505061a4ea82614d6c565b9260005b83811061a4fc575050505090565b808361a50b61a5179385615028565b51166107f78288615028565b61a4ee565b815181101561a5b957828091600080935b61a568575b61a5429293501561a54857614b26565b9061a4d8565b8661a5538286615028565b51166107f761a5618a614b26565b998b615028565b919092865181101561a5b0578761a57f8587615028565b51168861a58c838a615028565b51161461a5a55761a59c90614b26565b9290918261a52d565b50918291508161a532565b5090829061a532565b61a4dd565b845181101561a5dc57808661a55361a5d69388615028565b8161a4ce565b61a4d3565b8654891685529586019589955093810193919091019061a499565b61a60581614797565b91905486820190818311614af757856107f79161a6289560031b1c169187615028565b61a453565b73ffffffffffffffffffffffffffffffffffffffff8091168015801561ac1c575b801561ac11575b61abdc5760409283519361a6688561489d565b6002908186526020948136878901378461a68188614fb9565b528061a68c88614fc6565b9416938490526001805496909460008681815b61aa8f575b505061aa84578260075416808814158061aa7a575b61a907575b508351808184600b549283815201600b6000527f0175b7a638427703f0dbe7bb9bbf987a2551717b34e79f33b5b1008d1fa01db99260005b8b8883831061a8f0575050505061a70f92500382614945565b805161a722575b50505050505050505090565b61a72c8491614fb9565b51168015158061a8e6575b8061a8dc575b1561a7165784519761a74e896148b9565b6060600394858b5236908b013761a76489614fb9565b5261a76e88614fc6565b5261a77887614fd6565b5260005b87811061a789578061a716565b8261a793826147ce565b905490841b1c161561a8d3578261a7a9826147ce565b905490841b1c168785517fd06ca61f0000000000000000000000000000000000000000000000000000000081526000816004948b86830152818061a7f86024978d898401526044830190614805565b03915afa6000918161a8b8575b5061a81c575b50505061a81790614b26565b61a77c565b805191888311938461a845575b5050505061a8395738808061a80b565b50505050505091505090565b90919293507fffffffffffffffffffffffffffffffffffffffffffffffffffffffffffffffff840193841161a88c5750509061a88091615028565b5115153880808061a829565b6011907f4e487b7100000000000000000000000000000000000000000000000000000000600052526000fd5b61a8cc91923d8091833e6113398183614945565b903861a805565b61a81790614b26565b508181141561a73d565b508781141561a737565b86548b16855295810195879550909301920161a6f6565b845161a912816148b9565b600391828252606036868401378961a92983614fb9565b5261a93382614fc6565b528261a93e82614fd6565b5260005b8a811061a95057505061a6be565b8561a95a826147ce565b905490851b1c161561aa71578561a970826147ce565b905490851b1c168751907fd06ca61f0000000000000000000000000000000000000000000000000000000082526004918b838201526000816024938c85830152818061a9bf604482018b614805565b03915afa6000918161aa56575b5061a9e3575b50505061a9de90614b26565b61a942565b8051918b8311938461aa0f575b5050505061aa005738808061a9d2565b50995050505050505050505090565b90919293507fffffffffffffffffffffffffffffffffffffffffffffffffffffffffffffffff840193841161a88c5750509061aa4a91615028565b5115153880808061a9f0565b61aa6a91923d8091833e6113398183614945565b903861a9cc565b61a9de90614b26565b508082141561a6b9565b505050505050505090565b8a81108061abd4575b1561abcf578b87878061aaaa856147ce565b919054600392831b1c161561abc25761aac2856147ce565b9054911b1c166000825180927fd06ca61f000000000000000000000000000000000000000000000000000000008252818061ab0f6004988b8a840152602498898401526044830190614805565b03915afa6000918161aba7575b5061ab34575b50505061ab2e90614b26565b8161a69f565b805191858311938461ab5c575b5050505061ab52575b38808061ab22565b909150819061ab4a565b919350919394507fffffffffffffffffffffffffffffffffffffffffffffffffffffffffffffffff840193841161a88c57505089929161ab9b91615028565b5115153880808061ab41565b61abbb91923d8091833e6113398183614945565b903861ab1c565b5050505061ab2e90614b26565b61a6a4565b50821561aa98565b91906040519261abeb8461489d565b60028452604036602086013761ac0084614fb9565b5261ac0a83614fc6565b9116905290565b50818316811461a655565b508183161561a64e565b9081602091031261446d5751801515810361446d5790565b1561ac4557565b60646040517f08c379a000000000000000000000000000000000000000000000000000000000815260206004820152600f60248201527f5472616e73666572206661696c656400000000000000000000000000000000006044820152fd5b9290919273ffffffffffffffffffffffffffffffffffffffff9081811615801561ae75575b61ae6e5761acd68551614d6c565b9260005b865181101561acf757808461a50b61acf2938a615028565b61acda565b5092919493909461ad088551614d6c565b9360005b865181101561ad9e57808361ad2461ad6c9388615028565b511615613aef5761ad418461ad398389615028565b51168a61aed5565b61ad57868661ad50858b615028565b511661aed5565b908015158061ad95575b61ad71575050614b26565b61ad0c565b61ad839161ad7e9161a3fe565b61b3f7565b61ad8d8289615028565b523880611211565b5081151561ad61565b5094509294505060005b815181101561ae68576001808201808311614af757815b61add4575b505061adcf90614b26565b61ada8565b835181101561ae635761ae028161adec84938a615028565b5161adf7868b615028565b511061ae0857614b26565b9061adbf565b8661ae138688615028565b51168761ae208389615028565b511661ae2c8789615028565b5261ae378288615028565b5261ae42858a615028565b5161ae4d828b615028565b5161ae58878c615028565b526107f7828b615028565b61adc4565b50925050565b5090915050565b508184161561acc8565b51906dffffffffffffffffffffffffffff8216820361446d57565b9081602091031261446d575160ff8116810361446d5790565b60ff166012039060ff8211614af757565b60ff16604d8111614af757600a0a90565b73ffffffffffffffffffffffffffffffffffffffff809116908115801561b3ed575b61a3f6576000928391600154925b83811061af1457505050505090565b818061af1f836147ce565b919054600392831b1c161561b3e257819061af39846147ce565b9054911b1c166040908151928380927fc45a0155000000000000000000000000000000000000000000000000000000008252602095869160049586915afa6000918161b3a7575b5061af99575b505050505061af9490614b26565b61af05565b1690811561b39a578583517fe6a439050000000000000000000000000000000000000000000000000000000081528a838201528581604481858d16978860248301525afa6000918161b35f575b5061aff3575b509061af86565b16938461b002575b869061afec565b8351927f0902f1ac00000000000000000000000000000000000000000000000000000000845260609586858581845afa8095600098899761b308575b505061b04c575b505061affb565b8390836000918851938480927f0dfe16810000000000000000000000000000000000000000000000000000000082525afa9091828261b2ce575b505061b09c575050505050505061af9490614b26565b918b60129485978051848184817f313ce56700000000000000000000000000000000000000000000000000000000978882525afa6000918161b2af575b5061b2a7575b5090839291518095819382525afa91829160009361b278575b505061b270575b5060009087168a0361b1e4575060129060ff94828683161460001461b1c1576dffffffffffffffffffffffffffff9150165b9383160361b192576dffffffffffffffffffffffffffff9150165b905b8015158061b189575b61b166575b808080808061b045565b9661b17b61ad7e61b1819361af94959a61a3fe565b90614aea565b95903861b15c565b5081151561b157565b6dffffffffffffffffffffffffffff61b1b561b1b061b1bc9461aeb3565b61aec4565b911661a3fe565b61b14c565b6dffffffffffffffffffffffffffff61b1b561b1b061b1df9461aeb3565b61b131565b5060ff939092601291858216830361b24d576dffffffffffffffffffffffffffff9150165b9383160361b22a576dffffffffffffffffffffffffffff9150165b9061b14e565b6dffffffffffffffffffffffffffff61b1b561b1b061b2489461aeb3565b61b224565b6dffffffffffffffffffffffffffff61b1b561b1b061b26b9461aeb3565b61b209565b93503861b0ff565b61b298929350803d1061b2a0575b61b2908183614945565b81019061ae9a565b90388061b0f8565b503d61b286565b96508361b0df565b61b2c7919250863d881161b2a05761b2908183614945565b903861b0d9565b909192508482813d831161b301575b61b2e78183614945565b81010312610270575061b2f990614dbb565b90388061b086565b503d61b2dd565b908099929750813d831161b358575b61b3218183614945565b810103126102705761b3328861ae7f565b908761b33f868b0161ae7f565b99015163ffffffff81160361027057509694388061b03e565b503d61b317565b919092508682813d831161b393575b61b3788183614945565b8101031261027057509061b38c8892614dbb565b903861afe6565b503d61b36e565b5050505061af9490614b26565b919092508582813d831161b3db575b61b3c08183614945565b8101031261027057509061b3d48792614dbb565b903861af80565b503d61b3b6565b505061af9490614b26565b508083161561aef7565b90811561b43b576001808301808411614af757811c90835b84831061b41b57505050565b9091935061b4328461b42d818461503c565b614aea565b821c919061b40f565b60009150565b9092919273ffffffffffffffffffffffffffffffffffffffff93848216801590811561b777575b811561b76b575b50801561b763575b61b751578461b48782848661b782565b9116918215801561b749575b61b72b5761b49f615092565b9661b4aa828661a62d565b9560409485519061b4ba8261489d565b815261271090602098828a8301528782015261b4d58b614fb9565b5261b4df8a614fb9565b50849760019560028754101561b4fd575b5050505050505050509190565b61b508868a8661bc65565b8860009692969182908284905b61b6c0575b5050505061b529575b5061b4f0565b84878b61b5359361c0c0565b939091808311918261b68e575b505061b54f575b8061b523565b919395979a509193959750966000878082905b61b62f575b505061b57290615134565b9960009586895b61b584575b5061b549565b865181101561b62a578c8961b5998389615028565b5115158061b615575b61b5b8575b505061b5b290614b26565b8961b579565b986154818161b60b938a869d61b5ea61b5e28f998b61b5da8261b5b29d615028565b511694615028565b51918b61a62d565b908b519261b5f78461489d565b83528c8301528a82015261782f8383615028565b9790508c8961b5a7565b508361b621848b615028565b5116151561b5a2565b61b57e565b865181101561b6895761b6428187615028565b5115158061b674575b61b65f575b61b65990614b26565b8161b562565b9161b66c61b65991614b26565b92905061b650565b508761b6808289615028565b5116151561b64b565b61b567565b90915061b69b8284614b84565b818102918183041490151715614af75760329161b6b79161503c565b1015388061b542565b895181101561b726578a61b6d4828c615028565b511615158061b713575b61b6f2575b61b6ec90614b26565b8361b515565b9161b6fc90614b26565b918383111561b6e35750505090508838808061b51a565b5061b71e8183615028565b51151561b6de565b61b51a565b505050505090506040519061b73f826148f1565b6000825260009190565b50811561b493565b50505090506040519061b73f826148f1565b50821561b477565b9050858216143861b46f565b82871615915061b468565b92919273ffffffffffffffffffffffffffffffffffffffff821615801561bc47575b801561bc12575b801561bc0a575b61bbfe576000936000926040519161b7c98361489d565b60028352604036602085013773ffffffffffffffffffffffffffffffffffffffff821661b7f584614fb9565b5261b7ff83614fc6565b73ffffffffffffffffffffffffffffffffffffffff8216905260009260018054945b85811061ba6b575050508661ba635773ffffffffffffffffffffffffffffffffffffffff60075416908173ffffffffffffffffffffffffffffffffffffffff841614158061ba43575b61b878575b50505050509190565b73ffffffffffffffffffffffffffffffffffffffff906040519261b89b846148b9565b8260039586865260603660208801371661b8b485614fb9565b5261b8be84614fc6565b521661b8c982614fd6565b5260005b8381101561b86f5773ffffffffffffffffffffffffffffffffffffffff61b8f3826147ce565b905490851b1c161561ba3a5773ffffffffffffffffffffffffffffffffffffffff61b91d826147ce565b905490851b1c166040517fd06ca61f0000000000000000000000000000000000000000000000000000000081526004918783830152600082602492604084830152818061b96d604482018b614805565b03915afa6000928161ba1d575b5061b991575b50505061b98c90614b26565b61b8cd565b8151926002841161b9a3575b5061b980565b7fffffffffffffffffffffffffffffffffffffffffffffffffffffffffffffffff840193841161a88c5750509061b9d991615028565b5188811161b9ea575b80808061b99d565b9750945061b98c73ffffffffffffffffffffffffffffffffffffffff61ba0f876147ce565b905490851b1c16959061b9e2565b61ba339193503d806000833e6113398183614945565b913861b97a565b61b98c90614b26565b508173ffffffffffffffffffffffffffffffffffffffff8216141561b86a565b505050509190565b73ffffffffffffffffffffffffffffffffffffffff61ba89826147ce565b90549060031b1c161561bbf55773ffffffffffffffffffffffffffffffffffffffff61bab4826147ce565b90549060031b1c16604051907fd06ca61f0000000000000000000000000000000000000000000000000000000082526004908982840152600083602492604084830152818061bb06604482018c614805565b03915afa6000938161bbd8575b5061bb2a575b50505061bb2590614b26565b61b821565b82519185831161bb3b575b5061bb19565b827fffffffffffffffffffffffffffffffffffffffffffffffffffffffffffffffff81011161a88c575050907fffffffffffffffffffffffffffffffffffffffffffffffffffffffffffffffff61bb93920190615028565b518a811161bba4575b80808061bb35565b9950965061bb2573ffffffffffffffffffffffffffffffffffffffff61bbc9896147ce565b90549060031b1c16979061bb9c565b61bbee9194503d806000833e6113398183614945565b923861bb13565b61bb2590614b26565b50509050600090600090565b50801561b7b2565b5073ffffffffffffffffffffffffffffffffffffffff841673ffffffffffffffffffffffffffffffffffffffff83161461b7ab565b5073ffffffffffffffffffffffffffffffffffffffff84161561b7a4565b9291909273ffffffffffffffffffffffffffffffffffffffff808516801590811561c0b5575b811561c0a9575b50801561c0a1575b61c0665760019182549360049685881161c008579496919060409283519661bcc18861490d565b81885260803660208a013784519961bcd88b61490d565b828b5260803660208d013761bcec81614d6c565b9561bcf682614d6c565b9560009586945b84861061be635750505050505060005b82811061bd9057506000865b61bd29575b505050505050509190565b8181108061bd87575b1561bd82578061bd4561bd4f9286615028565b5161bd5557614b26565b8661bd19565b8661bd608288615028565b511661bd6c828b615028565b5261bd778186615028565b516107f7828d615028565b61bd1e565b5082811061bd32565b86810180821161be35575b83811061bdb1575061bdac90614b26565b61bd0d565b8061bdbf61bdd59287615028565b5161bdca8488615028565b511061bdda57614b26565b61bd9b565b61bde48387615028565b5161bdef8288615028565b5161bdfa8589615028565b5261be058288615028565b528761be118489615028565b51168861be1e838a615028565b511661be2a858a615028565b526107f78289615028565b6011837f4e487b71000000000000000000000000000000000000000000000000000000006000525260246000fd5b9091929394968a61be73896147ce565b919054600392831b1c161561bffd578b61be8c8a6147ce565b905490831b1c1661be9d838d615028565b528b61bea9858561a62d565b91600283511060001461bedc5750505061becc8160006107f761bed2948d615028565b97614b26565b949392919061bcfd565b61bee58b6147ce565b9054911b1c166000875180927fd06ca61f000000000000000000000000000000000000000000000000000000008252888c830152818061bf306024978d898401526044830190614805565b03915afa6000918161bfe2575b5061bf5757505061becc8160006107f761bed2948d615028565b8d81511160001461bfcd578051917fffffffffffffffffffffffffffffffffffffffffffffffffffffffffffffffff830192831161bfa157509161bd7761becc9261bed294615028565b60118a7f4e487b7100000000000000000000000000000000000000000000000000000000600052526000fd5b505061becc8160006107f761bed2948d615028565b61bff691923d8091833e6113398183614945565b903861bf3d565b509661bed290614b26565b6064886020604051917f08c379a0000000000000000000000000000000000000000000000000000000008352820152601a60248201527f436f756e74206578636565647320726f7574657220636f756e740000000000006044820152fd5b50505090506040519061c0788261490d565b6004825260803660208401376040519161c0918361490d565b6004835260803660208501379190565b50811561bc9a565b9050818416143861bc92565b84831615915061bc8b565b939290919373ffffffffffffffffffffffffffffffffffffffff8316801590811561e8fc575b811561e8dc575b50801561e8d4575b61e8c25760009161c1068151614d6c565b6109405261c1148151614d6c565b9561c11f8251614d6c565b61c1298351614d6c565b9161c1348451614d6c565b9686805b865181101561c6635773ffffffffffffffffffffffffffffffffffffffff61c1608289615028565b511661c175575b61c17090614b26565b61c138565b9061c17f90614b26565b9061c18a848461a62d565b8c8989600284511061c65657600085939273ffffffffffffffffffffffffffffffffffffffff61c1bc86601495615028565b51166040519384927fd06ca61f00000000000000000000000000000000000000000000000000000000845204600483015260406024830152818061c203604482018a614805565b03915afa6000918161c63b575b5061c5c2575060009161c22291615028565b525b73ffffffffffffffffffffffffffffffffffffffff61c243838a615028565b5116600060405180927fd06ca61f000000000000000000000000000000000000000000000000000000008252600a8d04600483015260406024830152818061c28e6044820188614805565b03915afa6000918161c5a7575b5061c52c5750600061c2ad8388615028565b525b73ffffffffffffffffffffffffffffffffffffffff61c2ce838a615028565b5116600060405180927fd06ca61f0000000000000000000000000000000000000000000000000000000082528c60011c600483015260406024830152818061c3196044820188614805565b03915afa6000918161c511575b5061c4895750600061c3a3918161c33d858b615028565b525b73ffffffffffffffffffffffffffffffffffffffff61c35e858c615028565b51168b6040518095819482937fd06ca61f0000000000000000000000000000000000000000000000000000000084526004840152604060248401526044830190614805565b03915afa6000918161c46e575b5061c3df575080600061c3c661c170938d615028565b52600061c3d68261094051615028565b525b905061c167565b8051906001821161c3f6575b505061c1709061c3d8565b9091997fffffffffffffffffffffffffffffffffffffffffffffffffffffffffffffffff8301928311614af7578b61c43f8c61c43861c1709661c46696615028565b5192615028565b5261c44a8b8d615028565b5161c4588c61094051615028565b526111ff8b61094051615028565b98903861c3eb565b61c48291923d8091833e6113398183614945565b903861c3b0565b8051906001821161c4a2575b5050600061c3a39161c33f565b9091827fffffffffffffffffffffffffffffffffffffffffffffffffffffffffffffffff810111614af75761c4ff6000927fffffffffffffffffffffffffffffffffffffffffffffffffffffffffffffffff61c3a3950190615028565b5161c50a858b615028565b529161c495565b61c52591923d8091833e6113398183614945565b903861c326565b8051906001821161c53f575b505061c2af565b817fffffffffffffffffffffffffffffffffffffffffffffffffffffffffffffffff810111614af7577fffffffffffffffffffffffffffffffffffffffffffffffffffffffffffffffff61c594920190615028565b5161c59f8388615028565b52388061c538565b61c5bb91923d8091833e6113398183614945565b903861c29b565b91505080516001811161c5d7575b505061c224565b807fffffffffffffffffffffffffffffffffffffffffffffffffffffffffffffffff810111614af757838f9261c438907fffffffffffffffffffffffffffffffffffffffffffffffffffffffffffffffff61c633940190615028565b52388061c5d0565b61c64f91923d8091833e6113398183614945565b903861c210565b5050505061c17090614b26565b509997949398919099969295961561e89c5761c67f8451614d6c565b907fffffffffffffffffffffffffffffffffffffffffffffffffffffffffffffffe061c6ca8a5161c6bf61c6b282614986565b6040518061098052614945565b806109805152614986565b0136602061098051013760005b895181101561c9f95761c6ea818b615028565b5115801561c9e7575b801561c9d5575b801561c9c3575b61c9af5761c70f818b615028565b51670de0b6b3a76400009081810290808204831490151715614af75761c73960148c04809261503c565b9161c744848c615028565b519281840293808504831490151715614af75761c7728f9461c76c8f91600a8993049061503c565b95615028565b5182810290808204841490151715614af75761c792908e60011c9061503c565b9161c79d868d615028565b51818102918183041490151715614af7578e9361c7d18f61c7cb8961c7c58361c7d69761503c565b98615028565b5161a3fe565b61503c565b858c8584118061c99c575b1561c9845761c7fa9161c7f391615028565b5182614b84565b9061271091828102928184041490151715614af75761c8189161503c565b61c8258661098051615028565b525b8381118061c97b575b8061c972575b61c8a4575b5050505080600061c85261c8769361098051615028565b511261c88f575b6113888061c86a8361098051615028565b511361c87b5750614b26565b61c6d7565b61c8888261098051615028565b5238615481565b600061c89e8261098051615028565b5261c859565b9061c8c761c8c261c8da61c8cc8561c8c761c8c28a61c8e199614b84565b61eb94565b61ebaa565b9661c8c761c8c28683614b84565b9483614b84565b9082818313918261c968575b505061c8fb575b808061c83b565b60008282039212818312811691831390151617614af757600290059060c880831361c960575b5061c92f8161098051615028565b5160008382019384129112908015821691151617614af75761c8769161c9588261098051615028565b52903861c8f4565b91503861c921565b139050823861c8ed565b5082821161c836565b5081841161c830565b506000915061c9969061098051615028565b5261c827565b5061c9a78282615028565b51831161c7e1565b806127106107f761c8769361098051615028565b5061c9ce8188615028565b511561c701565b5061c9e0818c615028565b511561c6fa565b5061c9f28189615028565b511561c6f3565b509450945094965094509561ca0e8751614d6c565b6109c052600096875b815181101561cae05761ca2d8161094051615028565b5161ca41575b61ca3c90614b26565b61ca17565b97600061ca518a61098051615028565b51121561cacc576000905b81906107d080931361cac4575b61ca768b61094051615028565b51926000838203931281841281169082851390151617614af75761caa061cabc9361ca3c9561a3fe565b0461caae8c6109c051615028565b526111ff8b6109c051615028565b98905061ca33565b82915061ca69565b61cad98961098051615028565b519061ca5c565b5090919293949561caf7610940516109805161ebff565b95600097885b845181101561e88f5761cb138161094051615028565b5115158061e877575b61cb2e5761cb2990614b26565b61cafd565b509091929394959697506001975b811561e6f4571561e68257881561e603575060005b835181101561cbbd5761cb678161094051615028565b5161cb7b575b61cb7690614b26565b61cb51565b61cb88816109c051615028565b519061271091828102928184041490151715614af75761cbab8a61cb769361503c565b61cbb5828a615028565b52905061cb6d565b5091939590929496505b61e1d6575b600093845b875186101561cbf75761cbeb61cbf1916111ff888b615028565b95614b26565b9461cbd1565b95909193969294506127109485871060001461e167576000958690875b8a5181101561cc5a578861cc2b826109c051615028565b511161cc40575b61cc3b90614b26565b61cc14565b61cc529198508092506109c051615028565b51968161cc32565b509193959790929496508103908111614af75761cc8461cc8b9161cc7e8489615028565b51614aea565b9186615028565b525b61cc9a848784868561e91b565b94600094855b885181101561cd105773ffffffffffffffffffffffffffffffffffffffff61ccc8828b615028565b511615158061ccfa575b61cce5575b61cce090614b26565b61cca0565b9561ccf261cce091614b26565b96905061ccd7565b5061cd088161094051615028565b51151561ccd2565b50919493969590929560405180610a205261066081019080821067ffffffffffffffff8311176124d8576032916040525260005b610640811061e153575061cd5e60405180610a805261490d565b6004610a8051526080366020610a8051013761cd8060405180610a405261490d565b6004610a4051526080366020610a4051013761cda2604051806109e05261490d565b60046109e0515260803660206109e051013761cdc460405180610a605261490d565b6004610a6051526080366020610a6051013760005b61094051805182101561d048579061cdf48161cecc93615028565b5161ce01610a4051614fb9565b51101561ced15761ce14610a4051614fd6565b5161ce21610a4051614fe6565b5261ce2e610a8051614fd6565b5161ce3b610a8051614fe6565b5261ce48610a4051614fc6565b5161ce55610a4051614fd6565b5261ce62610a8051614fc6565b5161ce6f610a8051614fd6565b5261ce7c610a4051614fb9565b5161ce89610a4051614fc6565b5261ce96610a8051614fb9565b5161cea3610a8051614fc6565b5261ceb18161094051615028565b5161cebe610a4051614fb9565b52806107f7610a8051614fb9565b61cdd9565b61cede8161094051615028565b5161ceeb610a4051614fc6565b51101561cf825761cefe610a4051614fd6565b5161cf0b610a4051614fe6565b5261cf18610a8051614fd6565b5161cf25610a8051614fe6565b5261cf32610a4051614fc6565b5161cf3f610a4051614fd6565b5261cf4c610a8051614fc6565b5161cf59610a8051614fd6565b5261cf678161094051615028565b5161cf74610a4051614fc6565b52806107f7610a8051614fc6565b61cf8f8161094051615028565b5161cf9c610a4051614fd6565b51101561cfff5761cfaf610a4051614fd6565b5161cfbc610a4051614fe6565b5261cfc9610a8051614fd6565b5161cfd6610a8051614fe6565b5261cfe48161094051615028565b5161cff1610a4051614fd6565b52806107f7610a8051614fd6565b61d00c8161094051615028565b5161d019610a4051614fe6565b511015613aef5761d02d8161094051615028565b5161d03a610a4051614fe6565b52806107f7610a8051614fe6565b5050919395909294966000610aa0525b6109c051805190610aa0519182101561d303579061d07591615028565b5161d082610a6051614fb9565b51101561d16a5761d095610a6051614fd6565b5161d0a2610a6051614fe6565b5261d0af6109e051614fd6565b5161d0bc6109e051614fe6565b5261d0c9610a6051614fc6565b5161d0d6610a6051614fd6565b5261d0e36109e051614fc6565b5161d0f06109e051614fd6565b5261d0fd610a6051614fb9565b5161d10a610a6051614fc6565b5261d1176109e051614fb9565b5161d1246109e051614fc6565b5261d135610aa0516109c051615028565b5161d142610a6051614fb9565b52610aa05161d1536109e051614fb9565b525b61d161610aa051614b26565b610aa05261d058565b61d17a610aa0516109c051615028565b5161d187610a6051614fc6565b51101561d22b5761d19a610a6051614fd6565b5161d1a7610a6051614fe6565b5261d1b46109e051614fd6565b5161d1c16109e051614fe6565b5261d1ce610a6051614fc6565b5161d1db610a6051614fd6565b5261d1e86109e051614fc6565b5161d1f56109e051614fd6565b5261d206610aa0516109c051615028565b5161d213610a6051614fc6565b52610aa05161d2246109e051614fc6565b525b61d155565b61d23b610aa0516109c051615028565b5161d248610a6051614fd6565b51101561d2b15761d25b610a6051614fd6565b5161d268610a6051614fe6565b5261d2756109e051614fd6565b5161d2826109e051614fe6565b5261d293610aa0516109c051615028565b5161d2a0610a6051614fd6565b52610aa05161d2246109e051614fd6565b61d2c1610aa0516109c051615028565b5161d2ce610a6051614fe6565b51101561d2265761d2e5610aa0516109c051615028565b5161d2f2610a6051614fe6565b52610aa05161d2246109e051614fe6565b50509193959490929461d3168551614d6c565b61d322610a2051614fb9565b5261d32f610a2051614fb9565b5061271061d35661d342610a2051614fb9565b5161d34f610a8051614fb9565b5190615028565b5261d3636109e051614fb9565b5161d370610a8051614fb9565b511461e1175761d3808551614d6c565b61d38c610a2051614fc6565b5261d399610a2051614fc6565b5061271061d3b961d3ac610a2051614fc6565b5161d34f6109e051614fb9565b525b600281101561d7e3575b61d3cf8551614d6c565b61d3db610a2051615006565b5261d3e8610a2051615006565b501515808061d7ce575b61d61f575b61d4018551614d6c565b61d40d610a2051615017565b5261d41a610a2051615017565b5061d487575b60005b610a2051805182101561d47c5761d43d8261d44792615028565b518686868c61e91b565b86811161d45e575b5061d45990614b26565b61d423565b91955095509361d45961d47487610a2051615028565b51969061d44f565b509496509350505050565b9492909391600094855b835181101561d4fd5761d4a7816109c051615028565b5161d4bb575b61d4b690614b26565b61d491565b9561d4f561d4b69161d4d0896109c051615028565b5161d4e78a61d4e1610a2051615017565b51615028565b526111ff896109c051615028565b96905061d4ad565b509193959092948061d510575b5061d420565b94919693909592600097885b835181101561d5aa5761d5358161d4e1610a2051615017565b5161d549575b61d54490614b26565b61d51c565b9861d55a8a61d4e1610a2051615017565b516127108102908082046127101490151715614af75761d5449161d5818a61d5a29361503c565b61d5918d61d4e1610a2051615017565b526111ff8c61d4e1610a2051615017565b99905061d53b565b50929550929590939661271081108061d609575b1561d50a57612710036127108111614af75761d60261d5df610a2051615017565b519161d5fc61d5f06109e051614fb9565b519161cc7e8386615028565b92615028565b523861d50a565b5061d6166109e051614fb9565b5185511161d5be565b959391600097959391885b845181101561d6b25761d6408161094051615028565b5161d654575b61d64f90614b26565b61d62a565b9861d6628a61094051615028565b5190620f4240908282810204821483151715614af75761d68961d6aa9261d64f940261b3f7565b61d6998d61d4e1610a2051615006565b526111ff8c61d4e1610a2051615006565b99905061d646565b509193959796909294968061d6c8575b5061d3f7565b95926000989592989794919798895b845181101561d7685761d6f08161d4e1610a2051615006565b5161d704575b61d6ff90614b26565b61d6d7565b9961d7158b61d4e1610a2051615006565b51806127108102046127101481151715614af75761d6ff918c61d74f61d7428d61271061d760960261503c565b9161d4e1610a2051615006565b526111ff8d61d4e1610a2051615006565b9a905061d6f6565b50929598909396509690939661271081108061d7b8575b1561d6c257612710036127108111614af75761d7b161d7a0610a2051615006565b519161d5fc61d5f0610a8051614fb9565b523861d6c2565b5061d7c5610a8051614fb9565b5186511161d77f565b5061d7db610a4051614fb9565b51151561d3f2565b95949392919061d7f38451614d6c565b61d7ff610a2051614fd6565b5261d80c610a2051614fd6565b50861561504657600096875b855181101561e1095773ffffffffffffffffffffffffffffffffffffffff61d8408288615028565b511615158061e0f3575b61d85d575b61d85890614b26565b61d818565b9761d8779082612710046107f78b61d4e1610a2051614fd6565b97817fffffffffffffffffffffffffffffffffffffffffffffffffffffffffffffffff810111614af7577fffffffffffffffffffffffffffffffffffffffffffffffffffffffffffffffff8201890361d84f5790919293949596975061d9037fffffffffffffffffffffffffffffffffffffffffffffffffffffffffffffffff8301836127100461a3fe565b61271003906127108211614af75761d9219061d4e1610a2051614fd6565b525b600360625b603481101561dfe9575b5061d93f6109e051614fb9565b5161d94c610a8051614fb9565b5114158061dfc7575b8061dfbd575b61ddd0575b8560038310158061ddc6575b61daba575b5060048210158061dab0575b61d988575b5061d3c5565b61da3461daa99161d9998851614d6c565b61d9a682610a2051615028565b5261d9b481610a2051615028565b5061d9d861d9c582610a2051615028565b516109c491829161d34f610a8051614fb9565b528061d9f761d9ea84610a2051615028565b5161d34f610a8051614fc6565b528061da1661da0984610a2051615028565b5161d34f610a8051614fd6565b526107f761da2783610a2051615028565b5161d34f610a8051614fe6565b61da3e8751614d6c565b61da4b82610a2051615028565b5261da5981610a2051615028565b50610fa061da6d61d34283610a2051615028565b52610bb861da8161d9ea83610a2051615028565b526107d061da9561da0983610a2051615028565b526103e86107f761da2783610a2051615028565b503861d982565b506030811061d97d565b61dce561db8b6107f761dc8d61dc2161dbc08661db4f61db4861dcd49a61dae46107f79b51614d6c565b61daf182610a2051615028565b5261daff81610a2051615028565b50610d0661db1361d34283610a2051615028565b5261db3761db2482610a2051615028565b51610d0591829161d34f610a8051614fc6565b526107f761da0983610a2051615028565b9151614d6c565b61db5c82610a2051615028565b5261db6a81610a2051615028565b5061db7881610a2051615028565b5161138896879161d34f610a8051614fb9565b52610bb861db9f61d9ea83610a2051615028565b5261dbad81610a2051615028565b516107d098899161d34f610a8051614fd6565b61dbca8d51614d6c565b61dbd782610a2051615028565b5261dbe581610a2051615028565b5061177061dbf961d34283610a2051615028565b526109c461dc0d61d9ea83610a2051615028565b526105dc6107f761da0983610a2051615028565b61dc2b8c51614d6c565b61dc3882610a2051615028565b5261dc4681610a2051615028565b50611b5861dc5a61d34283610a2051615028565b528561dc6c61d9ea83610a2051615028565b5261dc7a81610a2051615028565b516103e893849161d34f610a8051614fd6565b9161dc988b51614d6c565b61dca584610a2051615028565b5261dcb383610a2051615028565b5061dcc183610a2051615028565b51610fa096879161d34f610a8051614fb9565b5261db3761d9ea84610a2051615028565b9061dcf26109e051614fb9565b5161dcff610a8051614fb9565b5114158061dda4575b8061dd9a575b61dd1c575b5090508561d971565b61dd939261dd2a8951614d6c565b61dd3784610a2051615028565b5261dd4583610a2051615028565b508061dd5761d3ac85610a2051615028565b5261dd7561dd6884610a2051615028565b5161d34f6109e051614fc6565b526107f761dd8683610a2051615028565b5161d34f6109e051614fd6565b803861dd13565b50602e821061dd0e565b5061ddb16109e051614fc6565b5161ddbe610a8051614fc6565b51141561dd08565b506028821061d96c565b605a5b603281101561dec1575061dde96109e051614fb9565b5161ddf6610a8051614fb9565b5114158061deb7575b1561d9605761de5861deb29161de158851614d6c565b61de2282610a2051615028565b5261de3081610a2051615028565b50611b5861de4461d34283610a2051615028565b52610bb86107f761d3ac83610a2051615028565b61de628751614d6c565b61de6f82610a2051615028565b5261de7d81610a2051615028565b5061dea161de8e82610a2051615028565b5161138891829161d34f610a8051614fb9565b526107f761d3ac83610a2051615028565b61d960565b506020811061ddff565b9061decc8751614d6c565b61ded982610a2051615028565b5261dee781610a2051615028565b5081606481020460641482151715614af75761df0681610a2051615028565b5161df1b606484029161d34f6109e051614fb9565b52816064039060648211614af757816064810204606414836064141715614af75761df62916107f7606461df5284610a2051615028565b5192029161d34f6109e051614fc6565b907ffffffffffffffffffffffffffffffffffffffffffffffffffffffffffffffff681019081111561ddd3577f4e487b7100000000000000000000000000000000000000000000000000000000600052601160045260246000fd5b50601e811061d95b565b5061dfd46109e051614fc6565b5161dfe1610a8051614fc6565b51141561d955565b9061dff48751614d6c565b61e00182610a2051615028565b5261e00f81610a2051615028565b5081606481020460641482151715614af75761e02e81610a2051615028565b5161e043606484029161d34f610a8051614fb9565b52816064039060648211614af757816064810204606414836064141715614af75761e08a916107f7606461e07a84610a2051615028565b5192029161d34f610a8051614fc6565b90601a82101561e0ee577ffffffffffffffffffffffffffffffffffffffffffffffffffffffffffffffffe81019081111561d928577f4e487b7100000000000000000000000000000000000000000000000000000000600052601160045260246000fd5b61d932565b5061e1018161094051615028565b51151561d84a565b50909192939495965061d923565b61e1218551614d6c565b61e12d610a2051614fc6565b5261e13a610a2051614fc6565b5061271061e14d61d9ea610a2051614fc6565b5261d3bb565b80606060208093610a20510101520161cd44565b91939590929480821161e17c575b505061cc8d565b9390969260009692965b865181101561e1c85761e1998188615028565b519086820291808304881490151715614af75761e1b98a61e1c39361503c565b6107f7828a615028565b61e186565b50929650925093388061e175565b93909261e1e38351614d6c565b610a0052600093845b845181101561e24c578061e20661e2109261094051615028565b5161e21557614b26565b61e1ec565b73ffffffffffffffffffffffffffffffffffffffff61e2348288615028565b51166107f761e24289614b26565b98610a0051615028565b50919490936001811161e260575b5061cbcc565b60021461e26e575b3861e25a565b604095919492939551610180810181811067ffffffffffffffff8211176124d857604052600b815261016092833660208401376103e861e2ad83614fb9565b526107d061e2ba83614fc6565b52610bb861e2c783614fd6565b52610fa061e2d483614fe6565b5261119461e2e183614ff6565b5281516005101561476857611388938460c08401528251600610156147685761157c60e08401528251600710156147685761177061010084015282516008101561476857611b5861012084015282516009101561476857611f406101408401528251600a10156147685761232890839692999301526000939184610960525b8551610960519081101561e4e95761e3789087615028565b5195612710806109a05287810311614af75761e3948851614d6c565b93885191829b6000935b8b5185101561e460578b73ffffffffffffffffffffffffffffffffffffffff61e3c78783615028565b511673ffffffffffffffffffffffffffffffffffffffff61e3ea610a0051614fb9565b51160361e40257505061e3fc84614b26565b9361e39e565b61e4248673ffffffffffffffffffffffffffffffffffffffff92979397615028565b511673ffffffffffffffffffffffffffffffffffffffff61e447610a0051614fc6565b51161461e458575b61e3fc90614b26565b9c508c61e44f565b9297949c90959993509590958a51808410908161e4df575b5061e49c575b5050505061e48e61096051614b26565b61096052929194909761e360565b8361e4aa61e4c59484615028565b5261e4bb846109a051039183615028565b5289898d8d61e91b565b86811161e4d4575b808061e47e565b95509350388061e4cd565b905081103861e478565b50959450959261e4fa575b5061e268565b9194612710969496939193968784810311614af75760005b865181101561e530578060006107f761e52b938a615028565b61e512565b50909192939560005b845181101561e5f5578073ffffffffffffffffffffffffffffffffffffffff61e56561e59a9388615028565b511673ffffffffffffffffffffffffffffffffffffffff61e588610a0051614fb9565b51160361e59f57866107f7828a615028565b61e539565b73ffffffffffffffffffffffffffffffffffffffff61e5be8288615028565b511673ffffffffffffffffffffffffffffffffffffffff61e5e1610a0051614fc6565b511603614b2657868a036107f7828a615028565b50929350939550933861e4f4565b975060005b835181101561e6745761e61e8161094051615028565b5161e632575b61e62d90614b26565b61e608565b61e63f8161094051615028565b519061271091828102928184041490151715614af75761e6628a61e62d9361503c565b61e66c828a615028565b52905061e624565b50919395909294965061cbc7565b50600097509550869493929190855b61094051805182101561e6d85761e6a9828992615028565b511161e6be575b61e6b990614b26565b61e691565b80985061e6d091965061094051615028565b51948761e6b0565b50509295919450929561e6ee6127109188615028565b5261cbcc565b50509394929196509450600093845b875181101561e7555773ffffffffffffffffffffffffffffffffffffffff61e72b828a615028565b511661e740575b61e73b90614b26565b61e703565b9461e74d61e73b91614b26565b95905061e732565b509193949092948015801561e76b57505061cc8d565b96929493909695919561504657600094855b845187108061e84e575b1561e7b65761e7aa61e7b0918a61271004908161e7a48b8b615028565b52614aea565b96614b26565b9561e77d565b969193975091945061271080871061e7d5575b8192939495965061e175565b60005b885181101561e8415773ffffffffffffffffffffffffffffffffffffffff61e800828b615028565b511661e8145761e80f90614b26565b61e7d8565b9192939495968103908111614af75761cc8461e8349161cc7e8489615028565b525b90849392913861e7c9565b505090919293945061e836565b5073ffffffffffffffffffffffffffffffffffffffff61e86e8887615028565b5116151561e787565b506101f461e8888261098051615028565b511361cb1c565b509091929394959661cb3c565b509750505050505050506040519061e8b3826148f1565b60008252600036813760009190565b50505090506040519061e8b3826148f1565b50801561c0f5565b905073ffffffffffffffffffffffffffffffffffffffff8616143861c0ed565b73ffffffffffffffffffffffffffffffffffffffff871615915061c0e6565b9493919473ffffffffffffffffffffffffffffffffffffffff90818316801590811561eb89575b811561eb7d575b50801561eb75575b61eb6a57845184510361eb0c5761e96c60009760009461a62d565b93600285511061eb0257835b865181101561eaf9578361e98c8289615028565b511615801561eae7575b61eade5761271061e9b161e9aa8385615028565b518561a3fe565b04801561ead45761ea0f8561e9c6848b615028565b51168789604092835180809681947fd06ca61f0000000000000000000000000000000000000000000000000000000083526004998a840152602497888401526044830190614805565b03915afa88928161eab8575b5061ea32575b50505061ea2d90614b26565b61e978565b8151926001841161ea44575b5061ea21565b7fffffffffffffffffffffffffffffffffffffffffffffffffffffffffffffffff849d959d0193841161ea8e575050916111ff61ea849261ea2d94615028565b989038808061ea3e565b601189917f4e487b7100000000000000000000000000000000000000000000000000000000835252fd5b61eacd9193503d808b833e6113398183614945565b913861ea1b565b5061ea2d90614b26565b61ea2d90614b26565b5061eaf28183615028565b511561e996565b50505050505050565b5091955050505050565b60646040517f08c379a000000000000000000000000000000000000000000000000000000000815260206004820152601560248201527f4172726179206c656e677468206d69736d6174636800000000000000000000006044820152fd5b506000955050505050565b50801561e951565b9050828816143861e949565b88841615915061e942565b90606482029180830560641490151715614af757565b8115615046577fffffffffffffffffffffffffffffffffffffffffffffffffffffffffffffffff82147f8000000000000000000000000000000000000000000000000000000000000000821416614af7570590565b6000928391845b845181101561ec45578361ec1a8287615028565b511161ec2f575b61ec2a90614b26565b61ec06565b9450915061ec3d8484615028565b51918461ec21565b5091939093801561ed2f5760005b845181101561ed0f57828114158061ecfc575b61ec79575b61ec7490614b26565b61ec53565b61ec838185615028565b5161ec8e8486615028565b511361ecde5761ec9e8186615028565b51600983027ffffffffffffffffffffffffffffffffffffffffffffffffffffffffffffffff784820401614af757600a900411158061ece8575b1561ec6b575b5050505050600190565b50606461ecf58486615028565b511361ecd8565b5061ed078186615028565b51151561ec66565b505061012c925061ed1f91615028565b511361ed2a57600090565b600190565b50505050600090565b9035907fffffffffffffffffffffffffffffffffffffffffffffffffffffffffffffffe18136030182121561446d570180359067ffffffffffffffff821161446d57602001918160051b3603831361446d57565b908210156147685761eda39160051b81019061ed38565b9091565b919060608382031261446d576040519061edc08261489d565b819361edcb81614500565b83526020810135602084015260408101359167ffffffffffffffff831161446d5760409261edf9920161499e565b910152565b1561ee0557565b60846040517f08c379a000000000000000000000000000000000000000000000000000000000815260206004820152602260248201527f496e7465726d65646961746520746f6b656e206e6f742077686974656c69737460448201527f65640000000000000000000000000000000000000000000000000000000000006064820152fd5b9291909261ee9684614986565b9161eea46040519384614945565b829480845260208094019060051b83019282841161446d5780915b84831061eece57505050505050565b823567ffffffffffffffff811161446d57869161eeee868493860161eda7565b81520192019161eebf565b9160809361ef339173ffffffffffffffffffffffffffffffffffffffff93989796988552602085015260a0604085015260a0840190614805565b951660608201520152565b60025492839260129073ffffffffffffffffffffffffffffffffffffffff8094166040918251957f313ce56700000000000000000000000000000000000000000000000000000000958688528160209360049985818c818a5afa61f116575b501696855190815283818a818b5afa6000918161f0f7575b5061f0ef575b5060ff809616906009821015918261f084575b505061f077576007541680831490811561f06d575b5061f06357600890826000525282826000205416158061f051575b61f04657600052818160002054161592831561f033575b50505061f02157505090565b61f02d92505490614aea565b60011c90565b600090815220541615905038808061f015565b505050509150505490565b5083600052828260002054161561effe565b5050505050505090565b905085143861efe3565b5050505050509150505490565b7ffffffffffffffffffffffffffffffffffffffffffffffffffffffffffffffffa9192500186811161f0c15761f0b99061aec4565b11388061efce565b6011897f4e487b71000000000000000000000000000000000000000000000000000000006000525260246000fd5b95503861efbb565b61f10f919250853d871161b2a05761b2908183614945565b903861efb5565b61f12c90863d881161b2a05761b2908183614945565b503861ef9d56fea264697066735822122017fdaae5f39f3b9ed1136ae90f38ef247b01c487f0251314bf53e85539d58b7564736f6c63430008120033",
  "linkReferences": {},
  "deployedLinkReferences": {}
}